{"contracts/EIP-838ErrorCodes.sol":{"eip838errors":{"abi":[{"inputs":[{"internalType":"address","name":"addr","type":"address"},{"internalType":"uint256","name":"value","type":"uint256"}],"name":"TestError1","type":"error"},{"inputs":[{"internalType":"bytes","name":"data","type":"bytes"}],"name":"TestError2","type":"error"},{"inputs":[{"internalType":"bool","name":"pass","type":"bool"},{"internalType":"address","name":"addr","type":"address"},{"internalType":"uint256","name":"value","type":"uint256"}],"name":"testError1","outputs":[{"internalType":"bool","name":"","type":"bool"}],"stateMutability":"pure","type":"function"},{"inputs":[{"internalType":"bool","name":"pass","type":"bool"},{"internalType":"bytes","name":"data","type":"bytes"}],"name":"testError2","outputs":[{"internalType":"bool","name":"","type":"bool"}],"stateMutability":"pure","type":"function"}],"evm":{"bytecode":{"linkReferences":{},"object":"608060405234801561001057600080fd5b50610581806100206000396000f3fe608060405234801561001057600080fd5b50600436106100365760003560e01c8063a772cfe21461003b578063c0c977881461006b575b600080fd5b6100556004803603810190610050919061021a565b61009b565b604051610062919061027c565b60405180910390f35b610085600480360381019061008091906103dd565b6100ec565b604051610092919061027c565b60405180910390f35b6000836100e15782826040517f7f92a8ee0000000000000000000000000000000000000000000000000000000081526004016100d8929190610457565b60405180910390fd5b600190509392505050565b60008261013057816040517f28d2664000000000000000000000000000000000000000000000000000000000815260040161012791906104ff565b60405180910390fd5b6001905092915050565b6000604051905090565b600080fd5b600080fd5b60008115159050919050565b6101638161014e565b811461016e57600080fd5b50565b6000813590506101808161015a565b92915050565b600073ffffffffffffffffffffffffffffffffffffffff82169050919050565b60006101b182610186565b9050919050565b6101c1816101a6565b81146101cc57600080fd5b50565b6000813590506101de816101b8565b92915050565b6000819050919050565b6101f7816101e4565b811461020257600080fd5b50565b600081359050610214816101ee565b92915050565b60008060006060848603121561023357610232610144565b5b600061024186828701610171565b9350506020610252868287016101cf565b925050604061026386828701610205565b9150509250925092565b6102768161014e565b82525050565b6000602082019050610291600083018461026d565b92915050565b600080fd5b600080fd5b6000601f19601f8301169050919050565b7f4e487b7100000000000000000000000000000000000000000000000000000000600052604160045260246000fd5b6102ea826102a1565b810181811067ffffffffffffffff82111715610309576103086102b2565b5b80604052505050565b600061031c61013a565b905061032882826102e1565b919050565b600067ffffffffffffffff821115610348576103476102b2565b5b610351826102a1565b9050602081019050919050565b82818337600083830152505050565b600061038061037b8461032d565b610312565b90508281526020810184848401111561039c5761039b61029c565b5b6103a784828561035e565b509392505050565b600082601f8301126103c4576103c3610297565b5b81356103d484826020860161036d565b91505092915050565b600080604083850312156103f4576103f3610144565b5b600061040285828601610171565b925050602083013567ffffffffffffffff81111561042357610422610149565b5b61042f858286016103af565b9150509250929050565b610442816101a6565b82525050565b610451816101e4565b82525050565b600060408201905061046c6000830185610439565b6104796020830184610448565b9392505050565b600081519050919050565b600082825260208201905092915050565b60005b838110156104ba57808201518184015260208101905061049f565b60008484015250505050565b60006104d182610480565b6104db818561048b565b93506104eb81856020860161049c565b6104f4816102a1565b840191505092915050565b6000602082019050818103600083015261051981846104c6565b90509291505056fea2646970667358221220e0c6237602765c6f3985b057438db4e37374e610e35c76d07bd5a7719766764b64736f6c63782c302e382e31382d646576656c6f702e323032322e31312e382b636f6d6d69742e36306161353861362e6d6f64005d","opcodes":"PUSH1 0x80 PUSH1 0x40 MSTORE CALLVALUE DUP1 ISZERO PUSH2 0x10 JUMPI PUSH1 0x0 DUP1 REVERT JUMPDEST POP PUSH2 0x581 DUP1 PUSH2 0x20 PUSH1 0x0 CODECOPY PUSH1 0x0 RETURN INVALID PUSH1 0x80 PUSH1 0x40 MSTORE CALLVALUE DUP1 ISZERO PUSH2 0x10 JUMPI PUSH1 0x0 DUP1 REVERT JUMPDEST POP PUSH1 0x4 CALLDATASIZE LT PUSH2 0x36 JUMPI PUSH1 0x0 CALLDATALOAD PUSH1 0xE0 SHR DUP1 PUSH4 0xA772CFE2 EQ PUSH2 0x3B JUMPI DUP1 PUSH4 0xC0C97788 EQ PUSH2 0x6B JUMPI JUMPDEST PUSH1 0x0 DUP1 REVERT JUMPDEST PUSH2 0x55 PUSH1 0x4 DUP1 CALLDATASIZE SUB DUP2 ADD SWAP1 PUSH2 0x50 SWAP2 SWAP1 PUSH2 0x21A JUMP JUMPDEST PUSH2 0x9B JUMP JUMPDEST PUSH1 0x40 MLOAD PUSH2 0x62 SWAP2 SWAP1 PUSH2 0x27C JUMP JUMPDEST PUSH1 0x40 MLOAD DUP1 SWAP2 SUB SWAP1 RETURN JUMPDEST PUSH2 0x85 PUSH1 0x4 DUP1 CALLDATASIZE SUB DUP2 ADD SWAP1 PUSH2 0x80 SWAP2 SWAP1 PUSH2 0x3DD JUMP JUMPDEST PUSH2 0xEC JUMP JUMPDEST PUSH1 0x40 MLOAD PUSH2 0x92 SWAP2 SWAP1 PUSH2 0x27C JUMP JUMPDEST PUSH1 0x40 MLOAD DUP1 SWAP2 SUB SWAP1 RETURN JUMPDEST PUSH1 0x0 DUP4 PUSH2 0xE1 JUMPI DUP3 DUP3 PUSH1 0x40 MLOAD PUSH32 0x7F92A8EE00000000000000000000000000000000000000000000000000000000 DUP2 MSTORE PUSH1 0x4 ADD PUSH2 0xD8 SWAP3 SWAP2 SWAP1 PUSH2 0x457 JUMP JUMPDEST PUSH1 0x40 MLOAD DUP1 SWAP2 SUB SWAP1 REVERT JUMPDEST PUSH1 0x1 SWAP1 POP SWAP4 SWAP3 POP POP POP JUMP JUMPDEST PUSH1 0x0 DUP3 PUSH2 0x130 JUMPI DUP2 PUSH1 0x40 MLOAD PUSH32 0x28D2664000000000000000000000000000000000000000000000000000000000 DUP2 MSTORE PUSH1 0x4 ADD PUSH2 0x127 SWAP2 SWAP1 PUSH2 0x4FF JUMP JUMPDEST PUSH1 0x40 MLOAD DUP1 SWAP2 SUB SWAP1 REVERT JUMPDEST PUSH1 0x1 SWAP1 POP SWAP3 SWAP2 POP POP JUMP JUMPDEST PUSH1 0x0 PUSH1 0x40 MLOAD SWAP1 POP SWAP1 JUMP JUMPDEST PUSH1 0x0 DUP1 REVERT JUMPDEST PUSH1 0x0 DUP1 REVERT JUMPDEST PUSH1 0x0 DUP2 ISZERO ISZERO SWAP1 POP SWAP2 SWAP1 POP JUMP JUMPDEST PUSH2 0x163 DUP2 PUSH2 0x14E JUMP JUMPDEST DUP2 EQ PUSH2 0x16E JUMPI PUSH1 0x0 DUP1 REVERT JUMPDEST POP JUMP JUMPDEST PUSH1 0x0 DUP2 CALLDATALOAD SWAP1 POP PUSH2 0x180 DUP2 PUSH2 0x15A JUMP JUMPDEST SWAP3 SWAP2 POP POP JUMP JUMPDEST PUSH1 0x0 PUSH20 0xFFFFFFFFFFFFFFFFFFFFFFFFFFFFFFFFFFFFFFFF DUP3 AND SWAP1 POP SWAP2 SWAP1 POP JUMP JUMPDEST PUSH1 0x0 PUSH2 0x1B1 DUP3 PUSH2 0x186 JUMP JUMPDEST SWAP1 POP SWAP2 SWAP1 POP JUMP JUMPDEST PUSH2 0x1C1 DUP2 PUSH2 0x1A6 JUMP JUMPDEST DUP2 EQ PUSH2 0x1CC JUMPI PUSH1 0x0 DUP1 REVERT JUMPDEST POP JUMP JUMPDEST PUSH1 0x0 DUP2 CALLDATALOAD SWAP1 POP PUSH2 0x1DE DUP2 PUSH2 0x1B8 JUMP JUMPDEST SWAP3 SWAP2 POP POP JUMP JUMPDEST PUSH1 0x0 DUP2 SWAP1 POP SWAP2 SWAP1 POP JUMP JUMPDEST PUSH2 0x1F7 DUP2 PUSH2 0x1E4 JUMP JUMPDEST DUP2 EQ PUSH2 0x202 JUMPI PUSH1 0x0 DUP1 REVERT JUMPDEST POP JUMP JUMPDEST PUSH1 0x0 DUP2 CALLDATALOAD SWAP1 POP PUSH2 0x214 DUP2 PUSH2 0x1EE JUMP JUMPDEST SWAP3 SWAP2 POP POP JUMP JUMPDEST PUSH1 0x0 DUP1 PUSH1 0x0 PUSH1 0x60 DUP5 DUP7 SUB SLT ISZERO PUSH2 0x233 JUMPI PUSH2 0x232 PUSH2 0x144 JUMP JUMPDEST JUMPDEST PUSH1 0x0 PUSH2 0x241 DUP7 DUP3 DUP8 ADD PUSH2 0x171 JUMP JUMPDEST SWAP4 POP POP PUSH1 0x20 PUSH2 0x252 DUP7 DUP3 DUP8 ADD PUSH2 0x1CF JUMP JUMPDEST SWAP3 POP POP PUSH1 0x40 PUSH2 0x263 DUP7 DUP3 DUP8 ADD PUSH2 0x205 JUMP JUMPDEST SWAP2 POP POP SWAP3 POP SWAP3 POP SWAP3 JUMP JUMPDEST PUSH2 0x276 DUP2 PUSH2 0x14E JUMP JUMPDEST DUP3 MSTORE POP POP JUMP JUMPDEST PUSH1 0x0 PUSH1 0x20 DUP3 ADD SWAP1 POP PUSH2 0x291 PUSH1 0x0 DUP4 ADD DUP5 PUSH2 0x26D JUMP JUMPDEST SWAP3 SWAP2 POP POP JUMP JUMPDEST PUSH1 0x0 DUP1 REVERT JUMPDEST PUSH1 0x0 DUP1 REVERT JUMPDEST PUSH1 0x0 PUSH1 0x1F NOT PUSH1 0x1F DUP4 ADD AND SWAP1 POP SWAP2 SWAP1 POP JUMP JUMPDEST PUSH32 0x4E487B7100000000000000000000000000000000000000000000000000000000 PUSH1 0x0 MSTORE PUSH1 0x41 PUSH1 0x4 MSTORE PUSH1 0x24 PUSH1 0x0 REVERT JUMPDEST PUSH2 0x2EA DUP3 PUSH2 0x2A1 JUMP JUMPDEST DUP2 ADD DUP2 DUP2 LT PUSH8 0xFFFFFFFFFFFFFFFF DUP3 GT OR ISZERO PUSH2 0x309 JUMPI PUSH2 0x308 PUSH2 0x2B2 JUMP JUMPDEST JUMPDEST DUP1 PUSH1 0x40 MSTORE POP POP POP JUMP JUMPDEST PUSH1 0x0 PUSH2 0x31C PUSH2 0x13A JUMP JUMPDEST SWAP1 POP PUSH2 0x328 DUP3 DUP3 PUSH2 0x2E1 JUMP JUMPDEST SWAP2 SWAP1 POP JUMP JUMPDEST PUSH1 0x0 PUSH8 0xFFFFFFFFFFFFFFFF DUP3 GT ISZERO PUSH2 0x348 JUMPI PUSH2 0x347 PUSH2 0x2B2 JUMP JUMPDEST JUMPDEST PUSH2 0x351 DUP3 PUSH2 0x2A1 JUMP JUMPDEST SWAP1 POP PUSH1 0x20 DUP2 ADD SWAP1 POP SWAP2 SWAP1 POP JUMP JUMPDEST DUP3 DUP2 DUP4 CALLDATACOPY PUSH1 0x0 DUP4 DUP4 ADD MSTORE POP POP POP JUMP JUMPDEST PUSH1 0x0 PUSH2 0x380 PUSH2 0x37B DUP5 PUSH2 0x32D JUMP JUMPDEST PUSH2 0x312 JUMP JUMPDEST SWAP1 POP DUP3 DUP2 MSTORE PUSH1 0x20 DUP2 ADD DUP5 DUP5 DUP5 ADD GT ISZERO PUSH2 0x39C JUMPI PUSH2 0x39B PUSH2 0x29C JUMP JUMPDEST JUMPDEST PUSH2 0x3A7 DUP5 DUP3 DUP6 PUSH2 0x35E JUMP JUMPDEST POP SWAP4 SWAP3 POP POP POP JUMP JUMPDEST PUSH1 0x0 DUP3 PUSH1 0x1F DUP4 ADD SLT PUSH2 0x3C4 JUMPI PUSH2 0x3C3 PUSH2 0x297 JUMP JUMPDEST JUMPDEST DUP2 CALLDATALOAD PUSH2 0x3D4 DUP5 DUP3 PUSH1 0x20 DUP7 ADD PUSH2 0x36D JUMP JUMPDEST SWAP2 POP POP SWAP3 SWAP2 POP POP JUMP JUMPDEST PUSH1 0x0 DUP1 PUSH1 0x40 DUP4 DUP6 SUB SLT ISZERO PUSH2 0x3F4 JUMPI PUSH2 0x3F3 PUSH2 0x144 JUMP JUMPDEST JUMPDEST PUSH1 0x0 PUSH2 0x402 DUP6 DUP3 DUP7 ADD PUSH2 0x171 JUMP JUMPDEST SWAP3 POP POP PUSH1 0x20 DUP4 ADD CALLDATALOAD PUSH8 0xFFFFFFFFFFFFFFFF DUP2 GT ISZERO PUSH2 0x423 JUMPI PUSH2 0x422 PUSH2 0x149 JUMP JUMPDEST JUMPDEST PUSH2 0x42F DUP6 DUP3 DUP7 ADD PUSH2 0x3AF JUMP JUMPDEST SWAP2 POP POP SWAP3 POP SWAP3 SWAP1 POP JUMP JUMPDEST PUSH2 0x442 DUP2 PUSH2 0x1A6 JUMP JUMPDEST DUP3 MSTORE POP POP JUMP JUMPDEST PUSH2 0x451 DUP2 PUSH2 0x1E4 JUMP JUMPDEST DUP3 MSTORE POP POP JUMP JUMPDEST PUSH1 0x0 PUSH1 0x40 DUP3 ADD SWAP1 POP PUSH2 0x46C PUSH1 0x0 DUP4 ADD DUP6 PUSH2 0x439 JUMP JUMPDEST PUSH2 0x479 PUSH1 0x20 DUP4 ADD DUP5 PUSH2 0x448 JUMP JUMPDEST SWAP4 SWAP3 POP POP POP JUMP JUMPDEST PUSH1 0x0 DUP2 MLOAD SWAP1 POP SWAP2 SWAP1 POP JUMP JUMPDEST PUSH1 0x0 DUP3 DUP3 MSTORE PUSH1 0x20 DUP3 ADD SWAP1 POP SWAP3 SWAP2 POP POP JUMP JUMPDEST PUSH1 0x0 JUMPDEST DUP4 DUP2 LT ISZERO PUSH2 0x4BA JUMPI DUP1 DUP3 ADD MLOAD DUP2 DUP5 ADD MSTORE PUSH1 0x20 DUP2 ADD SWAP1 POP PUSH2 0x49F JUMP JUMPDEST PUSH1 0x0 DUP5 DUP5 ADD MSTORE POP POP POP POP JUMP JUMPDEST PUSH1 0x0 PUSH2 0x4D1 DUP3 PUSH2 0x480 JUMP JUMPDEST PUSH2 0x4DB DUP2 DUP6 PUSH2 0x48B JUMP JUMPDEST SWAP4 POP PUSH2 0x4EB DUP2 DUP6 PUSH1 0x20 DUP7 ADD PUSH2 0x49C JUMP JUMPDEST PUSH2 0x4F4 DUP2 PUSH2 0x2A1 JUMP JUMPDEST DUP5 ADD SWAP2 POP POP SWAP3 SWAP2 POP POP JUMP JUMPDEST PUSH1 0x0 PUSH1 0x20 DUP3 ADD SWAP1 POP DUP2 DUP2 SUB PUSH1 0x0 DUP4 ADD MSTORE PUSH2 0x519 DUP2 DUP5 PUSH2 0x4C6 JUMP JUMPDEST SWAP1 POP SWAP3 SWAP2 POP POP JUMP INVALID LOG2 PUSH5 0x6970667358 0x22 SLT KECCAK256 0xE0 0xC6 0x23 PUSH23 0x2765C6F3985B057438DB4E37374E610E35C76D07BD5A7 PUSH18 0x9766764B64736F6C63782C302E382E31382D PUSH5 0x6576656C6F PUSH17 0x2E323032322E31312E382B636F6D6D6974 0x2E CALLDATASIZE ADDRESS PUSH2 0x6135 CODESIZE PUSH2 0x362E PUSH14 0x6F64005D00000000000000000000 "},"methodIdentifiers":{"testError1(bool,address,uint256)":"a772cfe2","testError2(bool,bytes)":"c0c97788"}}}}}