{"contracts/test-solc/consumer.sol":{"Consumer":{"abi":[{"inputs":[],"name":"f","outputs":[],"stateMutability":"pure","type":"function"}],"evm":{"bytecode":{"linkReferences":{},"object":"6080604052348015600f57600080fd5b5060a78061001e6000396000f3fe6080604052348015600f57600080fd5b506004361060285760003560e01c806326121ff014602d575b600080fd5b60336035565b005b603b603e565b50565b6000600790509056fea264697066735822122021f3a05976ad9318fbd63d744b812699946047ddd62ff94f5cf169d149768d9464736f6c63782c302e382e31382d646576656c6f702e323032322e31312e382b636f6d6d69742e36306161353861362e6d6f64005d","opcodes":"PUSH1 0x80 PUSH1 0x40 MSTORE CALLVALUE DUP1 ISZERO PUSH1 0xF JUMPI PUSH1 0x0 DUP1 REVERT JUMPDEST POP PUSH1 0xA7 DUP1 PUSH2 0x1E PUSH1 0x0 CODECOPY PUSH1 0x0 RETURN INVALID PUSH1 0x80 PUSH1 0x40 MSTORE CALLVALUE DUP1 ISZERO PUSH1 0xF JUMPI PUSH1 0x0 DUP1 REVERT JUMPDEST POP PUSH1 0x4 CALLDATASIZE LT PUSH1 0x28 JUMPI PUSH1 0x0 CALLDATALOAD PUSH1 0xE0 SHR DUP1 PUSH4 0x26121FF0 EQ PUSH1 0x2D JUMPI JUMPDEST PUSH1 0x0 DUP1 REVERT JUMPDEST PUSH1 0x33 PUSH1 0x35 JUMP JUMPDEST STOP JUMPDEST PUSH1 0x3B PUSH1 0x3E JUMP JUMPDEST POP JUMP JUMPDEST PUSH1 0x0 PUSH1 0x7 SWAP1 POP SWAP1 JUMP INVALID LOG2 PUSH5 0x6970667358 0x22 SLT KECCAK256 0x21 RETURN LOG0 MSIZE PUSH23 0xAD9318FBD63D744B812699946047DDD62FF94F5CF169D1 0x49 PUSH23 0x8D9464736F6C63782C302E382E31382D646576656C6F70 0x2E ORIGIN ADDRESS ORIGIN ORIGIN 0x2E BALANCE BALANCE 0x2E CODESIZE 0x2B PUSH4 0x6F6D6D69 PUSH21 0x2E36306161353861362E6D6F64005D000000000000 "},"methodIdentifiers":{"f()":"26121ff0"}}}}}