{"contracts/TestContract.sol":{"TestContract":{"abi":[{"anonymous":false,"inputs":[{"indexed":false,"internalType":"address","name":"p0","type":"address"},{"indexed":false,"internalType":"uint256","name":"p2","type":"uint256"}],"name":"Test","type":"event"},{"anonymous":true,"inputs":[{"indexed":false,"internalType":"address","name":"p0","type":"address"},{"indexed":false,"internalType":"uint256","name":"p2","type":"uint256"}],"name":"TestAnon","type":"event"},{"anonymous":true,"inputs":[{"indexed":true,"internalType":"address","name":"p0","type":"address"},{"indexed":false,"internalType":"uint256","name":"p2","type":"uint256"}],"name":"TestAnonP0","type":"event"},{"anonymous":true,"inputs":[{"indexed":true,"internalType":"address","name":"p0","type":"address"},{"indexed":true,"internalType":"uint256","name":"p2","type":"uint256"}],"name":"TestAnonP0P1","type":"event"},{"anonymous":false,"inputs":[{"indexed":false,"internalType":"string","name":"name","type":"string"},{"indexed":false,"internalType":"bytes32","name":"hash","type":"bytes32"}],"name":"TestHash","type":"event"},{"anonymous":false,"inputs":[{"indexed":true,"internalType":"string","name":"p2","type":"string"},{"indexed":false,"internalType":"uint256","name":"p1","type":"uint256"}],"name":"TestIndexedString","type":"event"},{"anonymous":false,"inputs":[{"indexed":true,"internalType":"address","name":"p0","type":"address"},{"indexed":false,"internalType":"uint256","name":"p2","type":"uint256"}],"name":"TestP0","type":"event"},{"anonymous":false,"inputs":[{"indexed":true,"internalType":"address","name":"p0","type":"address"},{"indexed":true,"internalType":"uint256","name":"p2","type":"uint256"}],"name":"TestP0P1","type":"event"},{"anonymous":false,"inputs":[{"components":[{"internalType":"address","name":"p0","type":"address"},{"internalType":"uint256","name":"p1","type":"uint256"}],"indexed":true,"internalType":"struct TestContract.TestStruct","name":"p0","type":"tuple"},{"components":[{"internalType":"address","name":"p0","type":"address"},{"internalType":"uint256","name":"p1","type":"uint256"}],"indexed":false,"internalType":"struct TestContract.TestStruct","name":"p1","type":"tuple"}],"name":"TestV2","type":"event"},{"anonymous":false,"inputs":[{"components":[{"internalType":"address","name":"p0","type":"address"},{"internalType":"uint256","name":"p1","type":"uint256"},{"components":[{"internalType":"address","name":"p0","type":"address"},{"internalType":"uint256","name":"p1","type":"uint256"}],"internalType":"struct TestContract.TestStruct","name":"child","type":"tuple"}],"indexed":true,"internalType":"struct TestContract.TestStructParent","name":"p0","type":"tuple"},{"components":[{"internalType":"address","name":"p0","type":"address"},{"internalType":"uint256","name":"p1","type":"uint256"},{"components":[{"internalType":"address","name":"p0","type":"address"},{"internalType":"uint256","name":"p1","type":"uint256"}],"internalType":"struct TestContract.TestStruct","name":"child","type":"tuple"}],"indexed":false,"internalType":"struct TestContract.TestStructParent","name":"p1","type":"tuple"}],"name":"TestV2Nested","type":"event"},{"inputs":[{"internalType":"address","name":"p0","type":"address"},{"internalType":"uint256","name":"p1","type":"uint256"},{"internalType":"string","name":"p2","type":"string"}],"name":"testEvents","outputs":[],"stateMutability":"nonpayable","type":"function"},{"inputs":[{"internalType":"uint32","name":"p0","type":"uint32"}],"name":"testMultiResult","outputs":[{"internalType":"uint32","name":"r0","type":"uint32"},{"internalType":"uint32","name":"r1","type":"uint32"}],"stateMutability":"pure","type":"function"},{"inputs":[{"internalType":"uint32","name":"p0","type":"uint32"}],"name":"testSingleResult","outputs":[{"internalType":"uint32","name":"r0","type":"uint32"}],"stateMutability":"pure","type":"function"},{"inputs":[{"components":[{"internalType":"address","name":"p0","type":"address"},{"internalType":"uint256","name":"p1","type":"uint256"},{"components":[{"internalType":"address","name":"p0","type":"address"},{"internalType":"uint256","name":"p1","type":"uint256"}],"internalType":"struct TestContract.TestStruct","name":"child","type":"tuple"}],"internalType":"struct TestContract.TestStructParent","name":"p0","type":"tuple"}],"name":"testV2","outputs":[{"components":[{"internalType":"address","name":"p0","type":"address"},{"internalType":"uint256","name":"p1","type":"uint256"},{"components":[{"internalType":"address","name":"p0","type":"address"},{"internalType":"uint256","name":"p1","type":"uint256"}],"internalType":"struct TestContract.TestStruct","name":"child","type":"tuple"}],"internalType":"struct TestContract.TestStructParent","name":"","type":"tuple"}],"stateMutability":"pure","type":"function"}],"evm":{"bytecode":{"linkReferences":{},"object":"608060405234801561001057600080fd5b50610f8a806100206000396000f3fe608060405234801561001057600080fd5b506004361061004c5760003560e01c8063132414eb1461005157806361096af31461008157806370e4a0e6146100b2578063babf8901146100e2575b600080fd5b61006b60048036038101906100669190610667565b6100fe565b60405161007891906106a3565b60405180910390f35b61009b60048036038101906100969190610667565b610114565b6040516100a99291906106be565b60405180910390f35b6100cc60048036038101906100c791906108c0565b61013a565b6040516100d9919061097c565b60405180910390f35b6100fc60048036038101906100f79190610a51565b61021a565b005b600060018261010d9190610aef565b9050919050565b6000806001836101249190610aef565b91506002836101339190610aef565b9050915091565b6101426105aa565b60f082600001516101539190610b27565b826000019073ffffffffffffffffffffffffffffffffffffffff16908173ffffffffffffffffffffffffffffffffffffffff168152505060f08260200181815161019d9190610b6f565b91508181525050600f8260400151600001516101b99190610b27565b82604001516000019073ffffffffffffffffffffffffffffffffffffffff16908173ffffffffffffffffffffffffffffffffffffffff1681525050600f826040015160200181815161020b9190610b6f565b91508181525050819050919050565b7f4ba54330f8090ac87ed0a0b470fd9c8a6bbec84bfe94f4fa7776d1dc27da9f9c838360405161024b929190610bc1565b60405180910390a18273ffffffffffffffffffffffffffffffffffffffff167f02d0f5cbd3582d62980b4541ea596241400b46b70e62e8f5d4191b59e5256b79836040516102999190610bea565b60405180910390a2818373ffffffffffffffffffffffffffffffffffffffff167f259f1a317c656f6d04907e133c9444121c489db10cc9ae0cb8e5089fb24579bd60405160405180910390a382826040516102f5929190610bc1565b60405180910390a08273ffffffffffffffffffffffffffffffffffffffff16826040516103229190610bea565b60405180910390a1818373ffffffffffffffffffffffffffffffffffffffff1660405160405180910390a28060405161035b9190610c76565b60405180910390207f64c167146cf1edcaf437640ce9016042b5d80b35064b04ad29af4b8b1420db90836040516103929190610bea565b60405180910390a26103a26105e7565b83816000019073ffffffffffffffffffffffffffffffffffffffff16908173ffffffffffffffffffffffffffffffffffffffff1681525050828160200181815250506103ec6105aa565b6001856103f99190610b27565b816000019073ffffffffffffffffffffffffffffffffffffffff16908173ffffffffffffffffffffffffffffffffffffffff168152505060018461043d9190610b6f565b8160200181815250508181604001819052508160405161045d9190610d08565b60405180910390207fe85f025e05a85adc87cd1791754b085143ee32261f66e8b6118e8229b494dcdb836040516104949190610d52565b60405180910390a2806040516104aa9190610df1565b60405180910390207fe0f519dd634b43e6774158c4064aeaeb81762b6577a8c8b8c65b53053fd915fc826040516104e1919061097c565b60405180910390a27fd8b63a613757c85c5a7bc41a52505a0a5d424f9c1a0cdb6d86c53af2f392d8188260405160200161051b9190610d52565b6040516020818303038152906040528051906020012060405161053e9190610e82565b60405180910390a17fd8b63a613757c85c5a7bc41a52505a0a5d424f9c1a0cdb6d86c53af2f392d81881604051602001610578919061097c565b6040516020818303038152906040528051906020012060405161059b9190610efc565b60405180910390a15050505050565b6040518060600160405280600073ffffffffffffffffffffffffffffffffffffffff168152602001600081526020016105e16105e7565b81525090565b6040518060400160405280600073ffffffffffffffffffffffffffffffffffffffff168152602001600081525090565b6000604051905090565b600080fd5b600080fd5b600063ffffffff82169050919050565b6106448161062b565b811461064f57600080fd5b50565b6000813590506106618161063b565b92915050565b60006020828403121561067d5761067c610621565b5b600061068b84828501610652565b91505092915050565b61069d8161062b565b82525050565b60006020820190506106b86000830184610694565b92915050565b60006040820190506106d36000830185610694565b6106e06020830184610694565b9392505050565b600080fd5b6000601f19601f8301169050919050565b7f4e487b7100000000000000000000000000000000000000000000000000000000600052604160045260246000fd5b610735826106ec565b810181811067ffffffffffffffff82111715610754576107536106fd565b5b80604052505050565b6000610767610617565b9050610773828261072c565b919050565b600073ffffffffffffffffffffffffffffffffffffffff82169050919050565b60006107a382610778565b9050919050565b6107b381610798565b81146107be57600080fd5b50565b6000813590506107d0816107aa565b92915050565b6000819050919050565b6107e9816107d6565b81146107f457600080fd5b50565b600081359050610806816107e0565b92915050565b600060408284031215610822576108216106e7565b5b61082c604061075d565b9050600061083c848285016107c1565b6000830152506020610850848285016107f7565b60208301525092915050565b600060808284031215610872576108716106e7565b5b61087c606061075d565b9050600061088c848285016107c1565b60008301525060206108a0848285016107f7565b60208301525060406108b48482850161080c565b60408301525092915050565b6000608082840312156108d6576108d5610621565b5b60006108e48482850161085c565b91505092915050565b6108f681610798565b82525050565b610905816107d6565b82525050565b60408201600082015161092160008501826108ed565b50602082015161093460208501826108fc565b50505050565b60808201600082015161095060008501826108ed565b50602082015161096360208501826108fc565b506040820151610976604085018261090b565b50505050565b6000608082019050610991600083018461093a565b92915050565b600080fd5b600080fd5b600067ffffffffffffffff8211156109bc576109bb6106fd565b5b6109c5826106ec565b9050602081019050919050565b82818337600083830152505050565b60006109f46109ef846109a1565b61075d565b905082815260208101848484011115610a1057610a0f61099c565b5b610a1b8482856109d2565b509392505050565b600082601f830112610a3857610a37610997565b5b8135610a488482602086016109e1565b91505092915050565b600080600060608486031215610a6a57610a69610621565b5b6000610a78868287016107c1565b9350506020610a89868287016107f7565b925050604084013567ffffffffffffffff811115610aaa57610aa9610626565b5b610ab686828701610a23565b9150509250925092565b7f4e487b7100000000000000000000000000000000000000000000000000000000600052601160045260246000fd5b6000610afa8261062b565b9150610b058361062b565b9250828201905063ffffffff811115610b2157610b20610ac0565b5b92915050565b6000610b3282610778565b9150610b3d83610778565b9250828201905073ffffffffffffffffffffffffffffffffffffffff811115610b6957610b68610ac0565b5b92915050565b6000610b7a826107d6565b9150610b85836107d6565b9250828201905080821115610b9d57610b9c610ac0565b5b92915050565b610bac81610798565b82525050565b610bbb816107d6565b82525050565b6000604082019050610bd66000830185610ba3565b610be36020830184610bb2565b9392505050565b6000602082019050610bff6000830184610bb2565b92915050565b600081519050919050565b600081905092915050565b60005b83811015610c39578082015181840152602081019050610c1e565b60008484015250505050565b6000610c5082610c05565b610c5a8185610c10565b9350610c6a818560208601610c1b565b80840191505092915050565b6000610c828284610c45565b915081905092915050565b610c9681610798565b82525050565b6000610ca88383610c8d565b60208301905092915050565b610cbd816107d6565b82525050565b6000610ccf8383610cb4565b60208301905092915050565b600082016000820151610cee8482610c9c565b9350506020820151610d008482610cc3565b935050505050565b6000610d148284610cdb565b60408201915081905092915050565b604082016000820151610d3960008501826108ed565b506020820151610d4c60208501826108fc565b50505050565b6000604082019050610d676000830184610d23565b92915050565b600082016000820151610d808482610c9c565b9350506020820151610d928482610cc3565b935050505050565b6000610da68383610d6d565b60408301905092915050565b600082016000820151610dc58482610c9c565b9350506020820151610dd78482610cc3565b9350506040820151610de98482610d9a565b935050505050565b6000610dfd8284610db2565b60808201915081905092915050565b600082825260208201905092915050565b7f546573745374727563744b656363616b32353600000000000000000000000000600082015250565b6000610e53601383610e0c565b9150610e5e82610e1d565b602082019050919050565b6000819050919050565b610e7c81610e69565b82525050565b60006040820190508181036000830152610e9b81610e46565b9050610eaa6020830184610e73565b92915050565b7f54657374537472756374506172656e744b656363616b32353600000000000000600082015250565b6000610ee6601983610e0c565b9150610ef182610eb0565b602082019050919050565b60006040820190508181036000830152610f1581610ed9565b9050610f246020830184610e73565b9291505056fea264697066735822122080ec5e18825bb86539761d5b0d393adc73b7eaa390a082171a6676d3b6103d3564736f6c63782c302e382e31382d646576656c6f702e323032322e31312e382b636f6d6d69742e36306161353861362e6d6f64005d","opcodes":"PUSH1 0x80 PUSH1 0x40 MSTORE CALLVALUE DUP1 ISZERO PUSH2 0x10 JUMPI PUSH1 0x0 DUP1 REVERT JUMPDEST POP PUSH2 0xF8A DUP1 PUSH2 0x20 PUSH1 0x0 CODECOPY PUSH1 0x0 RETURN INVALID PUSH1 0x80 PUSH1 0x40 MSTORE CALLVALUE DUP1 ISZERO PUSH2 0x10 JUMPI PUSH1 0x0 DUP1 REVERT JUMPDEST POP PUSH1 0x4 CALLDATASIZE LT PUSH2 0x4C JUMPI PUSH1 0x0 CALLDATALOAD PUSH1 0xE0 SHR DUP1 PUSH4 0x132414EB EQ PUSH2 0x51 JUMPI DUP1 PUSH4 0x61096AF3 EQ PUSH2 0x81 JUMPI DUP1 PUSH4 0x70E4A0E6 EQ PUSH2 0xB2 JUMPI DUP1 PUSH4 0xBABF8901 EQ PUSH2 0xE2 JUMPI JUMPDEST PUSH1 0x0 DUP1 REVERT JUMPDEST PUSH2 0x6B PUSH1 0x4 DUP1 CALLDATASIZE SUB DUP2 ADD SWAP1 PUSH2 0x66 SWAP2 SWAP1 PUSH2 0x667 JUMP JUMPDEST PUSH2 0xFE JUMP JUMPDEST PUSH1 0x40 MLOAD PUSH2 0x78 SWAP2 SWAP1 PUSH2 0x6A3 JUMP JUMPDEST PUSH1 0x40 MLOAD DUP1 SWAP2 SUB SWAP1 RETURN JUMPDEST PUSH2 0x9B PUSH1 0x4 DUP1 CALLDATASIZE SUB DUP2 ADD SWAP1 PUSH2 0x96 SWAP2 SWAP1 PUSH2 0x667 JUMP JUMPDEST PUSH2 0x114 JUMP JUMPDEST PUSH1 0x40 MLOAD PUSH2 0xA9 SWAP3 SWAP2 SWAP1 PUSH2 0x6BE JUMP JUMPDEST PUSH1 0x40 MLOAD DUP1 SWAP2 SUB SWAP1 RETURN JUMPDEST PUSH2 0xCC PUSH1 0x4 DUP1 CALLDATASIZE SUB DUP2 ADD SWAP1 PUSH2 0xC7 SWAP2 SWAP1 PUSH2 0x8C0 JUMP JUMPDEST PUSH2 0x13A JUMP JUMPDEST PUSH1 0x40 MLOAD PUSH2 0xD9 SWAP2 SWAP1 PUSH2 0x97C JUMP JUMPDEST PUSH1 0x40 MLOAD DUP1 SWAP2 SUB SWAP1 RETURN JUMPDEST PUSH2 0xFC PUSH1 0x4 DUP1 CALLDATASIZE SUB DUP2 ADD SWAP1 PUSH2 0xF7 SWAP2 SWAP1 PUSH2 0xA51 JUMP JUMPDEST PUSH2 0x21A JUMP JUMPDEST STOP JUMPDEST PUSH1 0x0 PUSH1 0x1 DUP3 PUSH2 0x10D SWAP2 SWAP1 PUSH2 0xAEF JUMP JUMPDEST SWAP1 POP SWAP2 SWAP1 POP JUMP JUMPDEST PUSH1 0x0 DUP1 PUSH1 0x1 DUP4 PUSH2 0x124 SWAP2 SWAP1 PUSH2 0xAEF JUMP JUMPDEST SWAP2 POP PUSH1 0x2 DUP4 PUSH2 0x133 SWAP2 SWAP1 PUSH2 0xAEF JUMP JUMPDEST SWAP1 POP SWAP2 POP SWAP2 JUMP JUMPDEST PUSH2 0x142 PUSH2 0x5AA JUMP JUMPDEST PUSH1 0xF0 DUP3 PUSH1 0x0 ADD MLOAD PUSH2 0x153 SWAP2 SWAP1 PUSH2 0xB27 JUMP JUMPDEST DUP3 PUSH1 0x0 ADD SWAP1 PUSH20 0xFFFFFFFFFFFFFFFFFFFFFFFFFFFFFFFFFFFFFFFF AND SWAP1 DUP2 PUSH20 0xFFFFFFFFFFFFFFFFFFFFFFFFFFFFFFFFFFFFFFFF AND DUP2 MSTORE POP POP PUSH1 0xF0 DUP3 PUSH1 0x20 ADD DUP2 DUP2 MLOAD PUSH2 0x19D SWAP2 SWAP1 PUSH2 0xB6F JUMP JUMPDEST SWAP2 POP DUP2 DUP2 MSTORE POP POP PUSH1 0xF DUP3 PUSH1 0x40 ADD MLOAD PUSH1 0x0 ADD MLOAD PUSH2 0x1B9 SWAP2 SWAP1 PUSH2 0xB27 JUMP JUMPDEST DUP3 PUSH1 0x40 ADD MLOAD PUSH1 0x0 ADD SWAP1 PUSH20 0xFFFFFFFFFFFFFFFFFFFFFFFFFFFFFFFFFFFFFFFF AND SWAP1 DUP2 PUSH20 0xFFFFFFFFFFFFFFFFFFFFFFFFFFFFFFFFFFFFFFFF AND DUP2 MSTORE POP POP PUSH1 0xF DUP3 PUSH1 0x40 ADD MLOAD PUSH1 0x20 ADD DUP2 DUP2 MLOAD PUSH2 0x20B SWAP2 SWAP1 PUSH2 0xB6F JUMP JUMPDEST SWAP2 POP DUP2 DUP2 MSTORE POP POP DUP2 SWAP1 POP SWAP2 SWAP1 POP JUMP JUMPDEST PUSH32 0x4BA54330F8090AC87ED0A0B470FD9C8A6BBEC84BFE94F4FA7776D1DC27DA9F9C DUP4 DUP4 PUSH1 0x40 MLOAD PUSH2 0x24B SWAP3 SWAP2 SWAP1 PUSH2 0xBC1 JUMP JUMPDEST PUSH1 0x40 MLOAD DUP1 SWAP2 SUB SWAP1 LOG1 DUP3 PUSH20 0xFFFFFFFFFFFFFFFFFFFFFFFFFFFFFFFFFFFFFFFF AND PUSH32 0x2D0F5CBD3582D62980B4541EA596241400B46B70E62E8F5D4191B59E5256B79 DUP4 PUSH1 0x40 MLOAD PUSH2 0x299 SWAP2 SWAP1 PUSH2 0xBEA JUMP JUMPDEST PUSH1 0x40 MLOAD DUP1 SWAP2 SUB SWAP1 LOG2 DUP2 DUP4 PUSH20 0xFFFFFFFFFFFFFFFFFFFFFFFFFFFFFFFFFFFFFFFF AND PUSH32 0x259F1A317C656F6D04907E133C9444121C489DB10CC9AE0CB8E5089FB24579BD PUSH1 0x40 MLOAD PUSH1 0x40 MLOAD DUP1 SWAP2 SUB SWAP1 LOG3 DUP3 DUP3 PUSH1 0x40 MLOAD PUSH2 0x2F5 SWAP3 SWAP2 SWAP1 PUSH2 0xBC1 JUMP JUMPDEST PUSH1 0x40 MLOAD DUP1 SWAP2 SUB SWAP1 LOG0 DUP3 PUSH20 0xFFFFFFFFFFFFFFFFFFFFFFFFFFFFFFFFFFFFFFFF AND DUP3 PUSH1 0x40 MLOAD PUSH2 0x322 SWAP2 SWAP1 PUSH2 0xBEA JUMP JUMPDEST PUSH1 0x40 MLOAD DUP1 SWAP2 SUB SWAP1 LOG1 DUP2 DUP4 PUSH20 0xFFFFFFFFFFFFFFFFFFFFFFFFFFFFFFFFFFFFFFFF AND PUSH1 0x40 MLOAD PUSH1 0x40 MLOAD DUP1 SWAP2 SUB SWAP1 LOG2 DUP1 PUSH1 0x40 MLOAD PUSH2 0x35B SWAP2 SWAP1 PUSH2 0xC76 JUMP JUMPDEST PUSH1 0x40 MLOAD DUP1 SWAP2 SUB SWAP1 KECCAK256 PUSH32 0x64C167146CF1EDCAF437640CE9016042B5D80B35064B04AD29AF4B8B1420DB90 DUP4 PUSH1 0x40 MLOAD PUSH2 0x392 SWAP2 SWAP1 PUSH2 0xBEA JUMP JUMPDEST PUSH1 0x40 MLOAD DUP1 SWAP2 SUB SWAP1 LOG2 PUSH2 0x3A2 PUSH2 0x5E7 JUMP JUMPDEST DUP4 DUP2 PUSH1 0x0 ADD SWAP1 PUSH20 0xFFFFFFFFFFFFFFFFFFFFFFFFFFFFFFFFFFFFFFFF AND SWAP1 DUP2 PUSH20 0xFFFFFFFFFFFFFFFFFFFFFFFFFFFFFFFFFFFFFFFF AND DUP2 MSTORE POP POP DUP3 DUP2 PUSH1 0x20 ADD DUP2 DUP2 MSTORE POP POP PUSH2 0x3EC PUSH2 0x5AA JUMP JUMPDEST PUSH1 0x1 DUP6 PUSH2 0x3F9 SWAP2 SWAP1 PUSH2 0xB27 JUMP JUMPDEST DUP2 PUSH1 0x0 ADD SWAP1 PUSH20 0xFFFFFFFFFFFFFFFFFFFFFFFFFFFFFFFFFFFFFFFF AND SWAP1 DUP2 PUSH20 0xFFFFFFFFFFFFFFFFFFFFFFFFFFFFFFFFFFFFFFFF AND DUP2 MSTORE POP POP PUSH1 0x1 DUP5 PUSH2 0x43D SWAP2 SWAP1 PUSH2 0xB6F JUMP JUMPDEST DUP2 PUSH1 0x20 ADD DUP2 DUP2 MSTORE POP POP DUP2 DUP2 PUSH1 0x40 ADD DUP2 SWAP1 MSTORE POP DUP2 PUSH1 0x40 MLOAD PUSH2 0x45D SWAP2 SWAP1 PUSH2 0xD08 JUMP JUMPDEST PUSH1 0x40 MLOAD DUP1 SWAP2 SUB SWAP1 KECCAK256 PUSH32 0xE85F025E05A85ADC87CD1791754B085143EE32261F66E8B6118E8229B494DCDB DUP4 PUSH1 0x40 MLOAD PUSH2 0x494 SWAP2 SWAP1 PUSH2 0xD52 JUMP JUMPDEST PUSH1 0x40 MLOAD DUP1 SWAP2 SUB SWAP1 LOG2 DUP1 PUSH1 0x40 MLOAD PUSH2 0x4AA SWAP2 SWAP1 PUSH2 0xDF1 JUMP JUMPDEST PUSH1 0x40 MLOAD DUP1 SWAP2 SUB SWAP1 KECCAK256 PUSH32 0xE0F519DD634B43E6774158C4064AEAEB81762B6577A8C8B8C65B53053FD915FC DUP3 PUSH1 0x40 MLOAD PUSH2 0x4E1 SWAP2 SWAP1 PUSH2 0x97C JUMP JUMPDEST PUSH1 0x40 MLOAD DUP1 SWAP2 SUB SWAP1 LOG2 PUSH32 0xD8B63A613757C85C5A7BC41A52505A0A5D424F9C1A0CDB6D86C53AF2F392D818 DUP3 PUSH1 0x40 MLOAD PUSH1 0x20 ADD PUSH2 0x51B SWAP2 SWAP1 PUSH2 0xD52 JUMP JUMPDEST PUSH1 0x40 MLOAD PUSH1 0x20 DUP2 DUP4 SUB SUB DUP2 MSTORE SWAP1 PUSH1 0x40 MSTORE DUP1 MLOAD SWAP1 PUSH1 0x20 ADD KECCAK256 PUSH1 0x40 MLOAD PUSH2 0x53E SWAP2 SWAP1 PUSH2 0xE82 JUMP JUMPDEST PUSH1 0x40 MLOAD DUP1 SWAP2 SUB SWAP1 LOG1 PUSH32 0xD8B63A613757C85C5A7BC41A52505A0A5D424F9C1A0CDB6D86C53AF2F392D818 DUP2 PUSH1 0x40 MLOAD PUSH1 0x20 ADD PUSH2 0x578 SWAP2 SWAP1 PUSH2 0x97C JUMP JUMPDEST PUSH1 0x40 MLOAD PUSH1 0x20 DUP2 DUP4 SUB SUB DUP2 MSTORE SWAP1 PUSH1 0x40 MSTORE DUP1 MLOAD SWAP1 PUSH1 0x20 ADD KECCAK256 PUSH1 0x40 MLOAD PUSH2 0x59B SWAP2 SWAP1 PUSH2 0xEFC JUMP JUMPDEST PUSH1 0x40 MLOAD DUP1 SWAP2 SUB SWAP1 LOG1 POP POP POP POP POP JUMP JUMPDEST PUSH1 0x40 MLOAD DUP1 PUSH1 0x60 ADD PUSH1 0x40 MSTORE DUP1 PUSH1 0x0 PUSH20 0xFFFFFFFFFFFFFFFFFFFFFFFFFFFFFFFFFFFFFFFF AND DUP2 MSTORE PUSH1 0x20 ADD PUSH1 0x0 DUP2 MSTORE PUSH1 0x20 ADD PUSH2 0x5E1 PUSH2 0x5E7 JUMP JUMPDEST DUP2 MSTORE POP SWAP1 JUMP JUMPDEST PUSH1 0x40 MLOAD DUP1 PUSH1 0x40 ADD PUSH1 0x40 MSTORE DUP1 PUSH1 0x0 PUSH20 0xFFFFFFFFFFFFFFFFFFFFFFFFFFFFFFFFFFFFFFFF AND DUP2 MSTORE PUSH1 0x20 ADD PUSH1 0x0 DUP2 MSTORE POP SWAP1 JUMP JUMPDEST PUSH1 0x0 PUSH1 0x40 MLOAD SWAP1 POP SWAP1 JUMP JUMPDEST PUSH1 0x0 DUP1 REVERT JUMPDEST PUSH1 0x0 DUP1 REVERT JUMPDEST PUSH1 0x0 PUSH4 0xFFFFFFFF DUP3 AND SWAP1 POP SWAP2 SWAP1 POP JUMP JUMPDEST PUSH2 0x644 DUP2 PUSH2 0x62B JUMP JUMPDEST DUP2 EQ PUSH2 0x64F JUMPI PUSH1 0x0 DUP1 REVERT JUMPDEST POP JUMP JUMPDEST PUSH1 0x0 DUP2 CALLDATALOAD SWAP1 POP PUSH2 0x661 DUP2 PUSH2 0x63B JUMP JUMPDEST SWAP3 SWAP2 POP POP JUMP JUMPDEST PUSH1 0x0 PUSH1 0x20 DUP3 DUP5 SUB SLT ISZERO PUSH2 0x67D JUMPI PUSH2 0x67C PUSH2 0x621 JUMP JUMPDEST JUMPDEST PUSH1 0x0 PUSH2 0x68B DUP5 DUP3 DUP6 ADD PUSH2 0x652 JUMP JUMPDEST SWAP2 POP POP SWAP3 SWAP2 POP POP JUMP JUMPDEST PUSH2 0x69D DUP2 PUSH2 0x62B JUMP JUMPDEST DUP3 MSTORE POP POP JUMP JUMPDEST PUSH1 0x0 PUSH1 0x20 DUP3 ADD SWAP1 POP PUSH2 0x6B8 PUSH1 0x0 DUP4 ADD DUP5 PUSH2 0x694 JUMP JUMPDEST SWAP3 SWAP2 POP POP JUMP JUMPDEST PUSH1 0x0 PUSH1 0x40 DUP3 ADD SWAP1 POP PUSH2 0x6D3 PUSH1 0x0 DUP4 ADD DUP6 PUSH2 0x694 JUMP JUMPDEST PUSH2 0x6E0 PUSH1 0x20 DUP4 ADD DUP5 PUSH2 0x694 JUMP JUMPDEST SWAP4 SWAP3 POP POP POP JUMP JUMPDEST PUSH1 0x0 DUP1 REVERT JUMPDEST PUSH1 0x0 PUSH1 0x1F NOT PUSH1 0x1F DUP4 ADD AND SWAP1 POP SWAP2 SWAP1 POP JUMP JUMPDEST PUSH32 0x4E487B7100000000000000000000000000000000000000000000000000000000 PUSH1 0x0 MSTORE PUSH1 0x41 PUSH1 0x4 MSTORE PUSH1 0x24 PUSH1 0x0 REVERT JUMPDEST PUSH2 0x735 DUP3 PUSH2 0x6EC JUMP JUMPDEST DUP2 ADD DUP2 DUP2 LT PUSH8 0xFFFFFFFFFFFFFFFF DUP3 GT OR ISZERO PUSH2 0x754 JUMPI PUSH2 0x753 PUSH2 0x6FD JUMP JUMPDEST JUMPDEST DUP1 PUSH1 0x40 MSTORE POP POP POP JUMP JUMPDEST PUSH1 0x0 PUSH2 0x767 PUSH2 0x617 JUMP JUMPDEST SWAP1 POP PUSH2 0x773 DUP3 DUP3 PUSH2 0x72C JUMP JUMPDEST SWAP2 SWAP1 POP JUMP JUMPDEST PUSH1 0x0 PUSH20 0xFFFFFFFFFFFFFFFFFFFFFFFFFFFFFFFFFFFFFFFF DUP3 AND SWAP1 POP SWAP2 SWAP1 POP JUMP JUMPDEST PUSH1 0x0 PUSH2 0x7A3 DUP3 PUSH2 0x778 JUMP JUMPDEST SWAP1 POP SWAP2 SWAP1 POP JUMP JUMPDEST PUSH2 0x7B3 DUP2 PUSH2 0x798 JUMP JUMPDEST DUP2 EQ PUSH2 0x7BE JUMPI PUSH1 0x0 DUP1 REVERT JUMPDEST POP JUMP JUMPDEST PUSH1 0x0 DUP2 CALLDATALOAD SWAP1 POP PUSH2 0x7D0 DUP2 PUSH2 0x7AA JUMP JUMPDEST SWAP3 SWAP2 POP POP JUMP JUMPDEST PUSH1 0x0 DUP2 SWAP1 POP SWAP2 SWAP1 POP JUMP JUMPDEST PUSH2 0x7E9 DUP2 PUSH2 0x7D6 JUMP JUMPDEST DUP2 EQ PUSH2 0x7F4 JUMPI PUSH1 0x0 DUP1 REVERT JUMPDEST POP JUMP JUMPDEST PUSH1 0x0 DUP2 CALLDATALOAD SWAP1 POP PUSH2 0x806 DUP2 PUSH2 0x7E0 JUMP JUMPDEST SWAP3 SWAP2 POP POP JUMP JUMPDEST PUSH1 0x0 PUSH1 0x40 DUP3 DUP5 SUB SLT ISZERO PUSH2 0x822 JUMPI PUSH2 0x821 PUSH2 0x6E7 JUMP JUMPDEST JUMPDEST PUSH2 0x82C PUSH1 0x40 PUSH2 0x75D JUMP JUMPDEST SWAP1 POP PUSH1 0x0 PUSH2 0x83C DUP5 DUP3 DUP6 ADD PUSH2 0x7C1 JUMP JUMPDEST PUSH1 0x0 DUP4 ADD MSTORE POP PUSH1 0x20 PUSH2 0x850 DUP5 DUP3 DUP6 ADD PUSH2 0x7F7 JUMP JUMPDEST PUSH1 0x20 DUP4 ADD MSTORE POP SWAP3 SWAP2 POP POP JUMP JUMPDEST PUSH1 0x0 PUSH1 0x80 DUP3 DUP5 SUB SLT ISZERO PUSH2 0x872 JUMPI PUSH2 0x871 PUSH2 0x6E7 JUMP JUMPDEST JUMPDEST PUSH2 0x87C PUSH1 0x60 PUSH2 0x75D JUMP JUMPDEST SWAP1 POP PUSH1 0x0 PUSH2 0x88C DUP5 DUP3 DUP6 ADD PUSH2 0x7C1 JUMP JUMPDEST PUSH1 0x0 DUP4 ADD MSTORE POP PUSH1 0x20 PUSH2 0x8A0 DUP5 DUP3 DUP6 ADD PUSH2 0x7F7 JUMP JUMPDEST PUSH1 0x20 DUP4 ADD MSTORE POP PUSH1 0x40 PUSH2 0x8B4 DUP5 DUP3 DUP6 ADD PUSH2 0x80C JUMP JUMPDEST PUSH1 0x40 DUP4 ADD MSTORE POP SWAP3 SWAP2 POP POP JUMP JUMPDEST PUSH1 0x0 PUSH1 0x80 DUP3 DUP5 SUB SLT ISZERO PUSH2 0x8D6 JUMPI PUSH2 0x8D5 PUSH2 0x621 JUMP JUMPDEST JUMPDEST PUSH1 0x0 PUSH2 0x8E4 DUP5 DUP3 DUP6 ADD PUSH2 0x85C JUMP JUMPDEST SWAP2 POP POP SWAP3 SWAP2 POP POP JUMP JUMPDEST PUSH2 0x8F6 DUP2 PUSH2 0x798 JUMP JUMPDEST DUP3 MSTORE POP POP JUMP JUMPDEST PUSH2 0x905 DUP2 PUSH2 0x7D6 JUMP JUMPDEST DUP3 MSTORE POP POP JUMP JUMPDEST PUSH1 0x40 DUP3 ADD PUSH1 0x0 DUP3 ADD MLOAD PUSH2 0x921 PUSH1 0x0 DUP6 ADD DUP3 PUSH2 0x8ED JUMP JUMPDEST POP PUSH1 0x20 DUP3 ADD MLOAD PUSH2 0x934 PUSH1 0x20 DUP6 ADD DUP3 PUSH2 0x8FC JUMP JUMPDEST POP POP POP POP JUMP JUMPDEST PUSH1 0x80 DUP3 ADD PUSH1 0x0 DUP3 ADD MLOAD PUSH2 0x950 PUSH1 0x0 DUP6 ADD DUP3 PUSH2 0x8ED JUMP JUMPDEST POP PUSH1 0x20 DUP3 ADD MLOAD PUSH2 0x963 PUSH1 0x20 DUP6 ADD DUP3 PUSH2 0x8FC JUMP JUMPDEST POP PUSH1 0x40 DUP3 ADD MLOAD PUSH2 0x976 PUSH1 0x40 DUP6 ADD DUP3 PUSH2 0x90B JUMP JUMPDEST POP POP POP POP JUMP JUMPDEST PUSH1 0x0 PUSH1 0x80 DUP3 ADD SWAP1 POP PUSH2 0x991 PUSH1 0x0 DUP4 ADD DUP5 PUSH2 0x93A JUMP JUMPDEST SWAP3 SWAP2 POP POP JUMP JUMPDEST PUSH1 0x0 DUP1 REVERT JUMPDEST PUSH1 0x0 DUP1 REVERT JUMPDEST PUSH1 0x0 PUSH8 0xFFFFFFFFFFFFFFFF DUP3 GT ISZERO PUSH2 0x9BC JUMPI PUSH2 0x9BB PUSH2 0x6FD JUMP JUMPDEST JUMPDEST PUSH2 0x9C5 DUP3 PUSH2 0x6EC JUMP JUMPDEST SWAP1 POP PUSH1 0x20 DUP2 ADD SWAP1 POP SWAP2 SWAP1 POP JUMP JUMPDEST DUP3 DUP2 DUP4 CALLDATACOPY PUSH1 0x0 DUP4 DUP4 ADD MSTORE POP POP POP JUMP JUMPDEST PUSH1 0x0 PUSH2 0x9F4 PUSH2 0x9EF DUP5 PUSH2 0x9A1 JUMP JUMPDEST PUSH2 0x75D JUMP JUMPDEST SWAP1 POP DUP3 DUP2 MSTORE PUSH1 0x20 DUP2 ADD DUP5 DUP5 DUP5 ADD GT ISZERO PUSH2 0xA10 JUMPI PUSH2 0xA0F PUSH2 0x99C JUMP JUMPDEST JUMPDEST PUSH2 0xA1B DUP5 DUP3 DUP6 PUSH2 0x9D2 JUMP JUMPDEST POP SWAP4 SWAP3 POP POP POP JUMP JUMPDEST PUSH1 0x0 DUP3 PUSH1 0x1F DUP4 ADD SLT PUSH2 0xA38 JUMPI PUSH2 0xA37 PUSH2 0x997 JUMP JUMPDEST JUMPDEST DUP2 CALLDATALOAD PUSH2 0xA48 DUP5 DUP3 PUSH1 0x20 DUP7 ADD PUSH2 0x9E1 JUMP JUMPDEST SWAP2 POP POP SWAP3 SWAP2 POP POP JUMP JUMPDEST PUSH1 0x0 DUP1 PUSH1 0x0 PUSH1 0x60 DUP5 DUP7 SUB SLT ISZERO PUSH2 0xA6A JUMPI PUSH2 0xA69 PUSH2 0x621 JUMP JUMPDEST JUMPDEST PUSH1 0x0 PUSH2 0xA78 DUP7 DUP3 DUP8 ADD PUSH2 0x7C1 JUMP JUMPDEST SWAP4 POP POP PUSH1 0x20 PUSH2 0xA89 DUP7 DUP3 DUP8 ADD PUSH2 0x7F7 JUMP JUMPDEST SWAP3 POP POP PUSH1 0x40 DUP5 ADD CALLDATALOAD PUSH8 0xFFFFFFFFFFFFFFFF DUP2 GT ISZERO PUSH2 0xAAA JUMPI PUSH2 0xAA9 PUSH2 0x626 JUMP JUMPDEST JUMPDEST PUSH2 0xAB6 DUP7 DUP3 DUP8 ADD PUSH2 0xA23 JUMP JUMPDEST SWAP2 POP POP SWAP3 POP SWAP3 POP SWAP3 JUMP JUMPDEST PUSH32 0x4E487B7100000000000000000000000000000000000000000000000000000000 PUSH1 0x0 MSTORE PUSH1 0x11 PUSH1 0x4 MSTORE PUSH1 0x24 PUSH1 0x0 REVERT JUMPDEST PUSH1 0x0 PUSH2 0xAFA DUP3 PUSH2 0x62B JUMP JUMPDEST SWAP2 POP PUSH2 0xB05 DUP4 PUSH2 0x62B JUMP JUMPDEST SWAP3 POP DUP3 DUP3 ADD SWAP1 POP PUSH4 0xFFFFFFFF DUP2 GT ISZERO PUSH2 0xB21 JUMPI PUSH2 0xB20 PUSH2 0xAC0 JUMP JUMPDEST JUMPDEST SWAP3 SWAP2 POP POP JUMP JUMPDEST PUSH1 0x0 PUSH2 0xB32 DUP3 PUSH2 0x778 JUMP JUMPDEST SWAP2 POP PUSH2 0xB3D DUP4 PUSH2 0x778 JUMP JUMPDEST SWAP3 POP DUP3 DUP3 ADD SWAP1 POP PUSH20 0xFFFFFFFFFFFFFFFFFFFFFFFFFFFFFFFFFFFFFFFF DUP2 GT ISZERO PUSH2 0xB69 JUMPI PUSH2 0xB68 PUSH2 0xAC0 JUMP JUMPDEST JUMPDEST SWAP3 SWAP2 POP POP JUMP JUMPDEST PUSH1 0x0 PUSH2 0xB7A DUP3 PUSH2 0x7D6 JUMP JUMPDEST SWAP2 POP PUSH2 0xB85 DUP4 PUSH2 0x7D6 JUMP JUMPDEST SWAP3 POP DUP3 DUP3 ADD SWAP1 POP DUP1 DUP3 GT ISZERO PUSH2 0xB9D JUMPI PUSH2 0xB9C PUSH2 0xAC0 JUMP JUMPDEST JUMPDEST SWAP3 SWAP2 POP POP JUMP JUMPDEST PUSH2 0xBAC DUP2 PUSH2 0x798 JUMP JUMPDEST DUP3 MSTORE POP POP JUMP JUMPDEST PUSH2 0xBBB DUP2 PUSH2 0x7D6 JUMP JUMPDEST DUP3 MSTORE POP POP JUMP JUMPDEST PUSH1 0x0 PUSH1 0x40 DUP3 ADD SWAP1 POP PUSH2 0xBD6 PUSH1 0x0 DUP4 ADD DUP6 PUSH2 0xBA3 JUMP JUMPDEST PUSH2 0xBE3 PUSH1 0x20 DUP4 ADD DUP5 PUSH2 0xBB2 JUMP JUMPDEST SWAP4 SWAP3 POP POP POP JUMP JUMPDEST PUSH1 0x0 PUSH1 0x20 DUP3 ADD SWAP1 POP PUSH2 0xBFF PUSH1 0x0 DUP4 ADD DUP5 PUSH2 0xBB2 JUMP JUMPDEST SWAP3 SWAP2 POP POP JUMP JUMPDEST PUSH1 0x0 DUP2 MLOAD SWAP1 POP SWAP2 SWAP1 POP JUMP JUMPDEST PUSH1 0x0 DUP2 SWAP1 POP SWAP3 SWAP2 POP POP JUMP JUMPDEST PUSH1 0x0 JUMPDEST DUP4 DUP2 LT ISZERO PUSH2 0xC39 JUMPI DUP1 DUP3 ADD MLOAD DUP2 DUP5 ADD MSTORE PUSH1 0x20 DUP2 ADD SWAP1 POP PUSH2 0xC1E JUMP JUMPDEST PUSH1 0x0 DUP5 DUP5 ADD MSTORE POP POP POP POP JUMP JUMPDEST PUSH1 0x0 PUSH2 0xC50 DUP3 PUSH2 0xC05 JUMP JUMPDEST PUSH2 0xC5A DUP2 DUP6 PUSH2 0xC10 JUMP JUMPDEST SWAP4 POP PUSH2 0xC6A DUP2 DUP6 PUSH1 0x20 DUP7 ADD PUSH2 0xC1B JUMP JUMPDEST DUP1 DUP5 ADD SWAP2 POP POP SWAP3 SWAP2 POP POP JUMP JUMPDEST PUSH1 0x0 PUSH2 0xC82 DUP3 DUP5 PUSH2 0xC45 JUMP JUMPDEST SWAP2 POP DUP2 SWAP1 POP SWAP3 SWAP2 POP POP JUMP JUMPDEST PUSH2 0xC96 DUP2 PUSH2 0x798 JUMP JUMPDEST DUP3 MSTORE POP POP JUMP JUMPDEST PUSH1 0x0 PUSH2 0xCA8 DUP4 DUP4 PUSH2 0xC8D JUMP JUMPDEST PUSH1 0x20 DUP4 ADD SWAP1 POP SWAP3 SWAP2 POP POP JUMP JUMPDEST PUSH2 0xCBD DUP2 PUSH2 0x7D6 JUMP JUMPDEST DUP3 MSTORE POP POP JUMP JUMPDEST PUSH1 0x0 PUSH2 0xCCF DUP4 DUP4 PUSH2 0xCB4 JUMP JUMPDEST PUSH1 0x20 DUP4 ADD SWAP1 POP SWAP3 SWAP2 POP POP JUMP JUMPDEST PUSH1 0x0 DUP3 ADD PUSH1 0x0 DUP3 ADD MLOAD PUSH2 0xCEE DUP5 DUP3 PUSH2 0xC9C JUMP JUMPDEST SWAP4 POP POP PUSH1 0x20 DUP3 ADD MLOAD PUSH2 0xD00 DUP5 DUP3 PUSH2 0xCC3 JUMP JUMPDEST SWAP4 POP POP POP POP POP JUMP JUMPDEST PUSH1 0x0 PUSH2 0xD14 DUP3 DUP5 PUSH2 0xCDB JUMP JUMPDEST PUSH1 0x40 DUP3 ADD SWAP2 POP DUP2 SWAP1 POP SWAP3 SWAP2 POP POP JUMP JUMPDEST PUSH1 0x40 DUP3 ADD PUSH1 0x0 DUP3 ADD MLOAD PUSH2 0xD39 PUSH1 0x0 DUP6 ADD DUP3 PUSH2 0x8ED JUMP JUMPDEST POP PUSH1 0x20 DUP3 ADD MLOAD PUSH2 0xD4C PUSH1 0x20 DUP6 ADD DUP3 PUSH2 0x8FC JUMP JUMPDEST POP POP POP POP JUMP JUMPDEST PUSH1 0x0 PUSH1 0x40 DUP3 ADD SWAP1 POP PUSH2 0xD67 PUSH1 0x0 DUP4 ADD DUP5 PUSH2 0xD23 JUMP JUMPDEST SWAP3 SWAP2 POP POP JUMP JUMPDEST PUSH1 0x0 DUP3 ADD PUSH1 0x0 DUP3 ADD MLOAD PUSH2 0xD80 DUP5 DUP3 PUSH2 0xC9C JUMP JUMPDEST SWAP4 POP POP PUSH1 0x20 DUP3 ADD MLOAD PUSH2 0xD92 DUP5 DUP3 PUSH2 0xCC3 JUMP JUMPDEST SWAP4 POP POP POP POP POP JUMP JUMPDEST PUSH1 0x0 PUSH2 0xDA6 DUP4 DUP4 PUSH2 0xD6D JUMP JUMPDEST PUSH1 0x40 DUP4 ADD SWAP1 POP SWAP3 SWAP2 POP POP JUMP JUMPDEST PUSH1 0x0 DUP3 ADD PUSH1 0x0 DUP3 ADD MLOAD PUSH2 0xDC5 DUP5 DUP3 PUSH2 0xC9C JUMP JUMPDEST SWAP4 POP POP PUSH1 0x20 DUP3 ADD MLOAD PUSH2 0xDD7 DUP5 DUP3 PUSH2 0xCC3 JUMP JUMPDEST SWAP4 POP POP PUSH1 0x40 DUP3 ADD MLOAD PUSH2 0xDE9 DUP5 DUP3 PUSH2 0xD9A JUMP JUMPDEST SWAP4 POP POP POP POP POP JUMP JUMPDEST PUSH1 0x0 PUSH2 0xDFD DUP3 DUP5 PUSH2 0xDB2 JUMP JUMPDEST PUSH1 0x80 DUP3 ADD SWAP2 POP DUP2 SWAP1 POP SWAP3 SWAP2 POP POP JUMP JUMPDEST PUSH1 0x0 DUP3 DUP3 MSTORE PUSH1 0x20 DUP3 ADD SWAP1 POP SWAP3 SWAP2 POP POP JUMP JUMPDEST PUSH32 0x546573745374727563744B656363616B32353600000000000000000000000000 PUSH1 0x0 DUP3 ADD MSTORE POP JUMP JUMPDEST PUSH1 0x0 PUSH2 0xE53 PUSH1 0x13 DUP4 PUSH2 0xE0C JUMP JUMPDEST SWAP2 POP PUSH2 0xE5E DUP3 PUSH2 0xE1D JUMP JUMPDEST PUSH1 0x20 DUP3 ADD SWAP1 POP SWAP2 SWAP1 POP JUMP JUMPDEST PUSH1 0x0 DUP2 SWAP1 POP SWAP2 SWAP1 POP JUMP JUMPDEST PUSH2 0xE7C DUP2 PUSH2 0xE69 JUMP JUMPDEST DUP3 MSTORE POP POP JUMP JUMPDEST PUSH1 0x0 PUSH1 0x40 DUP3 ADD SWAP1 POP DUP2 DUP2 SUB PUSH1 0x0 DUP4 ADD MSTORE PUSH2 0xE9B DUP2 PUSH2 0xE46 JUMP JUMPDEST SWAP1 POP PUSH2 0xEAA PUSH1 0x20 DUP4 ADD DUP5 PUSH2 0xE73 JUMP JUMPDEST SWAP3 SWAP2 POP POP JUMP JUMPDEST PUSH32 0x54657374537472756374506172656E744B656363616B32353600000000000000 PUSH1 0x0 DUP3 ADD MSTORE POP JUMP JUMPDEST PUSH1 0x0 PUSH2 0xEE6 PUSH1 0x19 DUP4 PUSH2 0xE0C JUMP JUMPDEST SWAP2 POP PUSH2 0xEF1 DUP3 PUSH2 0xEB0 JUMP JUMPDEST PUSH1 0x20 DUP3 ADD SWAP1 POP SWAP2 SWAP1 POP JUMP JUMPDEST PUSH1 0x0 PUSH1 0x40 DUP3 ADD SWAP1 POP DUP2 DUP2 SUB PUSH1 0x0 DUP4 ADD MSTORE PUSH2 0xF15 DUP2 PUSH2 0xED9 JUMP JUMPDEST SWAP1 POP PUSH2 0xF24 PUSH1 0x20 DUP4 ADD DUP5 PUSH2 0xE73 JUMP JUMPDEST SWAP3 SWAP2 POP POP JUMP INVALID LOG2 PUSH5 0x6970667358 0x22 SLT KECCAK256 DUP1 0xEC 0x5E XOR DUP3 JUMPDEST 0xB8 PUSH6 0x39761D5B0D39 GASPRICE 0xDC PUSH20 0xB7EAA390A082171A6676D3B6103D3564736F6C63 PUSH25 0x2C302E382E31382D646576656C6F702E323032322E31312E38 0x2B PUSH4 0x6F6D6D69 PUSH21 0x2E36306161353861362E6D6F64005D000000000000 "},"methodIdentifiers":{"testEvents(address,uint256,string)":"babf8901","testMultiResult(uint32)":"61096af3","testSingleResult(uint32)":"132414eb","testV2((address,uint256,(address,uint256)))":"70e4a0e6"}}}}}