{
  "_format": "hh-sol-artifact-1",
  "contractName": "Consumer",
  "sourceName": "contracts/test-solc/consumer.sol",
  "abi": [
    {
      "inputs": [],
      "name": "f",
      "outputs": [],
      "stateMutability": "pure",
      "type": "function"
    }
  ],
  "bytecode": "0x6080604052348015600f57600080fd5b5060a78061001e6000396000f3fe6080604052348015600f57600080fd5b506004361060285760003560e01c806326121ff014602d575b600080fd5b60336035565b005b603b603e565b50565b6000600790509056fea264697066735822122021f3a05976ad9318fbd63d744b812699946047ddd62ff94f5cf169d149768d9464736f6c63782c302e382e31382d646576656c6f702e323032322e31312e382b636f6d6d69742e36306161353861362e6d6f64005d",
  "linkReferences": {},
  "deployedLinkReferences": {}
}