{
  "_format": "hh-sol-artifact-1",
  "contractName": "TestContract",
  "sourceName": "contracts/TestContract.sol",
  "abi": [
    {
      "anonymous": false,
      "inputs": [
        {
          "indexed": false,
          "internalType": "address",
          "name": "p0",
          "type": "address"
        },
        {
          "indexed": false,
          "internalType": "uint256",
          "name": "p2",
          "type": "uint256"
        }
      ],
      "name": "Test",
      "type": "event"
    },
    {
      "anonymous": true,
      "inputs": [
        {
          "indexed": false,
          "internalType": "address",
          "name": "p0",
          "type": "address"
        },
        {
          "indexed": false,
          "internalType": "uint256",
          "name": "p2",
          "type": "uint256"
        }
      ],
      "name": "TestAnon",
      "type": "event"
    },
    {
      "anonymous": true,
      "inputs": [
        {
          "indexed": true,
          "internalType": "address",
          "name": "p0",
          "type": "address"
        },
        {
          "indexed": false,
          "internalType": "uint256",
          "name": "p2",
          "type": "uint256"
        }
      ],
      "name": "TestAnonP0",
      "type": "event"
    },
    {
      "anonymous": true,
      "inputs": [
        {
          "indexed": true,
          "internalType": "address",
          "name": "p0",
          "type": "address"
        },
        {
          "indexed": true,
          "internalType": "uint256",
          "name": "p2",
          "type": "uint256"
        }
      ],
      "name": "TestAnonP0P1",
      "type": "event"
    },
    {
      "anonymous": false,
      "inputs": [
        {
          "indexed": false,
          "internalType": "string",
          "name": "name",
          "type": "string"
        },
        {
          "indexed": false,
          "internalType": "bytes32",
          "name": "hash",
          "type": "bytes32"
        }
      ],
      "name": "TestHash",
      "type": "event"
    },
    {
      "anonymous": false,
      "inputs": [
        {
          "indexed": true,
          "internalType": "string",
          "name": "p2",
          "type": "string"
        },
        {
          "indexed": false,
          "internalType": "uint256",
          "name": "p1",
          "type": "uint256"
        }
      ],
      "name": "TestIndexedString",
      "type": "event"
    },
    {
      "anonymous": false,
      "inputs": [
        {
          "indexed": true,
          "internalType": "address",
          "name": "p0",
          "type": "address"
        },
        {
          "indexed": false,
          "internalType": "uint256",
          "name": "p2",
          "type": "uint256"
        }
      ],
      "name": "TestP0",
      "type": "event"
    },
    {
      "anonymous": false,
      "inputs": [
        {
          "indexed": true,
          "internalType": "address",
          "name": "p0",
          "type": "address"
        },
        {
          "indexed": true,
          "internalType": "uint256",
          "name": "p2",
          "type": "uint256"
        }
      ],
      "name": "TestP0P1",
      "type": "event"
    },
    {
      "anonymous": false,
      "inputs": [
        {
          "components": [
            {
              "internalType": "address",
              "name": "p0",
              "type": "address"
            },
            {
              "internalType": "uint256",
              "name": "p1",
              "type": "uint256"
            }
          ],
          "indexed": true,
          "internalType": "struct TestContract.TestStruct",
          "name": "p0",
          "type": "tuple"
        },
        {
          "components": [
            {
              "internalType": "address",
              "name": "p0",
              "type": "address"
            },
            {
              "internalType": "uint256",
              "name": "p1",
              "type": "uint256"
            }
          ],
          "indexed": false,
          "internalType": "struct TestContract.TestStruct",
          "name": "p1",
          "type": "tuple"
        }
      ],
      "name": "TestV2",
      "type": "event"
    },
    {
      "anonymous": false,
      "inputs": [
        {
          "components": [
            {
              "internalType": "address",
              "name": "p0",
              "type": "address"
            },
            {
              "internalType": "uint256",
              "name": "p1",
              "type": "uint256"
            },
            {
              "components": [
                {
                  "internalType": "address",
                  "name": "p0",
                  "type": "address"
                },
                {
                  "internalType": "uint256",
                  "name": "p1",
                  "type": "uint256"
                }
              ],
              "internalType": "struct TestContract.TestStruct",
              "name": "child",
              "type": "tuple"
            }
          ],
          "indexed": true,
          "internalType": "struct TestContract.TestStructParent",
          "name": "p0",
          "type": "tuple"
        },
        {
          "components": [
            {
              "internalType": "address",
              "name": "p0",
              "type": "address"
            },
            {
              "internalType": "uint256",
              "name": "p1",
              "type": "uint256"
            },
            {
              "components": [
                {
                  "internalType": "address",
                  "name": "p0",
                  "type": "address"
                },
                {
                  "internalType": "uint256",
                  "name": "p1",
                  "type": "uint256"
                }
              ],
              "internalType": "struct TestContract.TestStruct",
              "name": "child",
              "type": "tuple"
            }
          ],
          "indexed": false,
          "internalType": "struct TestContract.TestStructParent",
          "name": "p1",
          "type": "tuple"
        }
      ],
      "name": "TestV2Nested",
      "type": "event"
    },
    {
      "inputs": [
        {
          "internalType": "address",
          "name": "p0",
          "type": "address"
        },
        {
          "internalType": "uint256",
          "name": "p1",
          "type": "uint256"
        },
        {
          "internalType": "string",
          "name": "p2",
          "type": "string"
        }
      ],
      "name": "testEvents",
      "outputs": [],
      "stateMutability": "nonpayable",
      "type": "function"
    },
    {
      "inputs": [
        {
          "internalType": "uint32",
          "name": "p0",
          "type": "uint32"
        }
      ],
      "name": "testMultiResult",
      "outputs": [
        {
          "internalType": "uint32",
          "name": "r0",
          "type": "uint32"
        },
        {
          "internalType": "uint32",
          "name": "r1",
          "type": "uint32"
        }
      ],
      "stateMutability": "pure",
      "type": "function"
    },
    {
      "inputs": [
        {
          "internalType": "uint32",
          "name": "p0",
          "type": "uint32"
        }
      ],
      "name": "testSingleResult",
      "outputs": [
        {
          "internalType": "uint32",
          "name": "r0",
          "type": "uint32"
        }
      ],
      "stateMutability": "pure",
      "type": "function"
    },
    {
      "inputs": [
        {
          "components": [
            {
              "internalType": "address",
              "name": "p0",
              "type": "address"
            },
            {
              "internalType": "uint256",
              "name": "p1",
              "type": "uint256"
            },
            {
              "components": [
                {
                  "internalType": "address",
                  "name": "p0",
                  "type": "address"
                },
                {
                  "internalType": "uint256",
                  "name": "p1",
                  "type": "uint256"
                }
              ],
              "internalType": "struct TestContract.TestStruct",
              "name": "child",
              "type": "tuple"
            }
          ],
          "internalType": "struct TestContract.TestStructParent",
          "name": "p0",
          "type": "tuple"
        }
      ],
      "name": "testV2",
      "outputs": [
        {
          "components": [
            {
              "internalType": "address",
              "name": "p0",
              "type": "address"
            },
            {
              "internalType": "uint256",
              "name": "p1",
              "type": "uint256"
            },
            {
              "components": [
                {
                  "internalType": "address",
                  "name": "p0",
                  "type": "address"
                },
                {
                  "internalType": "uint256",
                  "name": "p1",
                  "type": "uint256"
                }
              ],
              "internalType": "struct TestContract.TestStruct",
              "name": "child",
              "type": "tuple"
            }
          ],
          "internalType": "struct TestContract.TestStructParent",
          "name": "",
          "type": "tuple"
        }
      ],
      "stateMutability": "pure",
      "type": "function"
    }
  ],
  "bytecode": "0x608060405234801561001057600080fd5b50610f8a806100206000396000f3fe608060405234801561001057600080fd5b506004361061004c5760003560e01c8063132414eb1461005157806361096af31461008157806370e4a0e6146100b2578063babf8901146100e2575b600080fd5b61006b60048036038101906100669190610667565b6100fe565b60405161007891906106a3565b60405180910390f35b61009b60048036038101906100969190610667565b610114565b6040516100a99291906106be565b60405180910390f35b6100cc60048036038101906100c791906108c0565b61013a565b6040516100d9919061097c565b60405180910390f35b6100fc60048036038101906100f79190610a51565b61021a565b005b600060018261010d9190610aef565b9050919050565b6000806001836101249190610aef565b91506002836101339190610aef565b9050915091565b6101426105aa565b60f082600001516101539190610b27565b826000019073ffffffffffffffffffffffffffffffffffffffff16908173ffffffffffffffffffffffffffffffffffffffff168152505060f08260200181815161019d9190610b6f565b91508181525050600f8260400151600001516101b99190610b27565b82604001516000019073ffffffffffffffffffffffffffffffffffffffff16908173ffffffffffffffffffffffffffffffffffffffff1681525050600f826040015160200181815161020b9190610b6f565b91508181525050819050919050565b7f4ba54330f8090ac87ed0a0b470fd9c8a6bbec84bfe94f4fa7776d1dc27da9f9c838360405161024b929190610bc1565b60405180910390a18273ffffffffffffffffffffffffffffffffffffffff167f02d0f5cbd3582d62980b4541ea596241400b46b70e62e8f5d4191b59e5256b79836040516102999190610bea565b60405180910390a2818373ffffffffffffffffffffffffffffffffffffffff167f259f1a317c656f6d04907e133c9444121c489db10cc9ae0cb8e5089fb24579bd60405160405180910390a382826040516102f5929190610bc1565b60405180910390a08273ffffffffffffffffffffffffffffffffffffffff16826040516103229190610bea565b60405180910390a1818373ffffffffffffffffffffffffffffffffffffffff1660405160405180910390a28060405161035b9190610c76565b60405180910390207f64c167146cf1edcaf437640ce9016042b5d80b35064b04ad29af4b8b1420db90836040516103929190610bea565b60405180910390a26103a26105e7565b83816000019073ffffffffffffffffffffffffffffffffffffffff16908173ffffffffffffffffffffffffffffffffffffffff1681525050828160200181815250506103ec6105aa565b6001856103f99190610b27565b816000019073ffffffffffffffffffffffffffffffffffffffff16908173ffffffffffffffffffffffffffffffffffffffff168152505060018461043d9190610b6f565b8160200181815250508181604001819052508160405161045d9190610d08565b60405180910390207fe85f025e05a85adc87cd1791754b085143ee32261f66e8b6118e8229b494dcdb836040516104949190610d52565b60405180910390a2806040516104aa9190610df1565b60405180910390207fe0f519dd634b43e6774158c4064aeaeb81762b6577a8c8b8c65b53053fd915fc826040516104e1919061097c565b60405180910390a27fd8b63a613757c85c5a7bc41a52505a0a5d424f9c1a0cdb6d86c53af2f392d8188260405160200161051b9190610d52565b6040516020818303038152906040528051906020012060405161053e9190610e82565b60405180910390a17fd8b63a613757c85c5a7bc41a52505a0a5d424f9c1a0cdb6d86c53af2f392d81881604051602001610578919061097c565b6040516020818303038152906040528051906020012060405161059b9190610efc565b60405180910390a15050505050565b6040518060600160405280600073ffffffffffffffffffffffffffffffffffffffff168152602001600081526020016105e16105e7565b81525090565b6040518060400160405280600073ffffffffffffffffffffffffffffffffffffffff168152602001600081525090565b6000604051905090565b600080fd5b600080fd5b600063ffffffff82169050919050565b6106448161062b565b811461064f57600080fd5b50565b6000813590506106618161063b565b92915050565b60006020828403121561067d5761067c610621565b5b600061068b84828501610652565b91505092915050565b61069d8161062b565b82525050565b60006020820190506106b86000830184610694565b92915050565b60006040820190506106d36000830185610694565b6106e06020830184610694565b9392505050565b600080fd5b6000601f19601f8301169050919050565b7f4e487b7100000000000000000000000000000000000000000000000000000000600052604160045260246000fd5b610735826106ec565b810181811067ffffffffffffffff82111715610754576107536106fd565b5b80604052505050565b6000610767610617565b9050610773828261072c565b919050565b600073ffffffffffffffffffffffffffffffffffffffff82169050919050565b60006107a382610778565b9050919050565b6107b381610798565b81146107be57600080fd5b50565b6000813590506107d0816107aa565b92915050565b6000819050919050565b6107e9816107d6565b81146107f457600080fd5b50565b600081359050610806816107e0565b92915050565b600060408284031215610822576108216106e7565b5b61082c604061075d565b9050600061083c848285016107c1565b6000830152506020610850848285016107f7565b60208301525092915050565b600060808284031215610872576108716106e7565b5b61087c606061075d565b9050600061088c848285016107c1565b60008301525060206108a0848285016107f7565b60208301525060406108b48482850161080c565b60408301525092915050565b6000608082840312156108d6576108d5610621565b5b60006108e48482850161085c565b91505092915050565b6108f681610798565b82525050565b610905816107d6565b82525050565b60408201600082015161092160008501826108ed565b50602082015161093460208501826108fc565b50505050565b60808201600082015161095060008501826108ed565b50602082015161096360208501826108fc565b506040820151610976604085018261090b565b50505050565b6000608082019050610991600083018461093a565b92915050565b600080fd5b600080fd5b600067ffffffffffffffff8211156109bc576109bb6106fd565b5b6109c5826106ec565b9050602081019050919050565b82818337600083830152505050565b60006109f46109ef846109a1565b61075d565b905082815260208101848484011115610a1057610a0f61099c565b5b610a1b8482856109d2565b509392505050565b600082601f830112610a3857610a37610997565b5b8135610a488482602086016109e1565b91505092915050565b600080600060608486031215610a6a57610a69610621565b5b6000610a78868287016107c1565b9350506020610a89868287016107f7565b925050604084013567ffffffffffffffff811115610aaa57610aa9610626565b5b610ab686828701610a23565b9150509250925092565b7f4e487b7100000000000000000000000000000000000000000000000000000000600052601160045260246000fd5b6000610afa8261062b565b9150610b058361062b565b9250828201905063ffffffff811115610b2157610b20610ac0565b5b92915050565b6000610b3282610778565b9150610b3d83610778565b9250828201905073ffffffffffffffffffffffffffffffffffffffff811115610b6957610b68610ac0565b5b92915050565b6000610b7a826107d6565b9150610b85836107d6565b9250828201905080821115610b9d57610b9c610ac0565b5b92915050565b610bac81610798565b82525050565b610bbb816107d6565b82525050565b6000604082019050610bd66000830185610ba3565b610be36020830184610bb2565b9392505050565b6000602082019050610bff6000830184610bb2565b92915050565b600081519050919050565b600081905092915050565b60005b83811015610c39578082015181840152602081019050610c1e565b60008484015250505050565b6000610c5082610c05565b610c5a8185610c10565b9350610c6a818560208601610c1b565b80840191505092915050565b6000610c828284610c45565b915081905092915050565b610c9681610798565b82525050565b6000610ca88383610c8d565b60208301905092915050565b610cbd816107d6565b82525050565b6000610ccf8383610cb4565b60208301905092915050565b600082016000820151610cee8482610c9c565b9350506020820151610d008482610cc3565b935050505050565b6000610d148284610cdb565b60408201915081905092915050565b604082016000820151610d3960008501826108ed565b506020820151610d4c60208501826108fc565b50505050565b6000604082019050610d676000830184610d23565b92915050565b600082016000820151610d808482610c9c565b9350506020820151610d928482610cc3565b935050505050565b6000610da68383610d6d565b60408301905092915050565b600082016000820151610dc58482610c9c565b9350506020820151610dd78482610cc3565b9350506040820151610de98482610d9a565b935050505050565b6000610dfd8284610db2565b60808201915081905092915050565b600082825260208201905092915050565b7f546573745374727563744b656363616b32353600000000000000000000000000600082015250565b6000610e53601383610e0c565b9150610e5e82610e1d565b602082019050919050565b6000819050919050565b610e7c81610e69565b82525050565b60006040820190508181036000830152610e9b81610e46565b9050610eaa6020830184610e73565b92915050565b7f54657374537472756374506172656e744b656363616b32353600000000000000600082015250565b6000610ee6601983610e0c565b9150610ef182610eb0565b602082019050919050565b60006040820190508181036000830152610f1581610ed9565b9050610f246020830184610e73565b9291505056fea264697066735822122080ec5e18825bb86539761d5b0d393adc73b7eaa390a082171a6676d3b6103d3564736f6c63782c302e382e31382d646576656c6f702e323032322e31312e382b636f6d6d69742e36306161353861362e6d6f64005d",
  "linkReferences": {},
  "deployedLinkReferences": {}
}