{
  "_format": "hh-sol-artifact-1",
  "contractName": "QRC20",
  "sourceName": "contracts/QRC20.sol",
  "abi": [
    {
      "inputs": [],
      "stateMutability": "nonpayable",
      "type": "constructor"
    },
    {
      "anonymous": false,
      "inputs": [
        {
          "indexed": true,
          "internalType": "address",
          "name": "owner",
          "type": "address"
        },
        {
          "indexed": true,
          "internalType": "address",
          "name": "spender",
          "type": "address"
        },
        {
          "indexed": false,
          "internalType": "uint256",
          "name": "value",
          "type": "uint256"
        }
      ],
      "name": "Approval",
      "type": "event"
    },
    {
      "anonymous": false,
      "inputs": [
        {
          "indexed": true,
          "internalType": "address",
          "name": "from",
          "type": "address"
        },
        {
          "indexed": true,
          "internalType": "address",
          "name": "to",
          "type": "address"
        },
        {
          "indexed": false,
          "internalType": "uint256",
          "name": "value",
          "type": "uint256"
        }
      ],
      "name": "ExternalTransfer",
      "type": "event"
    },
    {
      "anonymous": false,
      "inputs": [
        {
          "indexed": true,
          "internalType": "address",
          "name": "from",
          "type": "address"
        },
        {
          "indexed": true,
          "internalType": "address",
          "name": "to",
          "type": "address"
        },
        {
          "indexed": false,
          "internalType": "uint256",
          "name": "value",
          "type": "uint256"
        }
      ],
      "name": "Transfer",
      "type": "event"
    },
    {
      "inputs": [
        {
          "internalType": "uint8",
          "name": "chain",
          "type": "uint8"
        },
        {
          "internalType": "address",
          "name": "addr",
          "type": "address"
        }
      ],
      "name": "AddApprovedAddress",
      "outputs": [],
      "stateMutability": "nonpayable",
      "type": "function"
    },
    {
      "inputs": [
        {
          "internalType": "uint8[]",
          "name": "chain",
          "type": "uint8[]"
        },
        {
          "internalType": "address[]",
          "name": "addr",
          "type": "address[]"
        }
      ],
      "name": "AddApprovedAddresses",
      "outputs": [],
      "stateMutability": "nonpayable",
      "type": "function"
    },
    {
      "inputs": [
        {
          "internalType": "uint256",
          "name": "",
          "type": "uint256"
        }
      ],
      "name": "ApprovedAddresses",
      "outputs": [
        {
          "internalType": "address",
          "name": "",
          "type": "address"
        }
      ],
      "stateMutability": "view",
      "type": "function"
    },
    {
      "inputs": [
        {
          "internalType": "uint256",
          "name": "",
          "type": "uint256"
        }
      ],
      "name": "Ranges",
      "outputs": [
        {
          "internalType": "uint8",
          "name": "low",
          "type": "uint8"
        },
        {
          "internalType": "uint8",
          "name": "high",
          "type": "uint8"
        }
      ],
      "stateMutability": "view",
      "type": "function"
    },
    {
      "inputs": [
        {
          "internalType": "address",
          "name": "owner",
          "type": "address"
        },
        {
          "internalType": "address",
          "name": "spender",
          "type": "address"
        }
      ],
      "name": "allowance",
      "outputs": [
        {
          "internalType": "uint256",
          "name": "",
          "type": "uint256"
        }
      ],
      "stateMutability": "view",
      "type": "function"
    },
    {
      "inputs": [
        {
          "internalType": "address",
          "name": "spender",
          "type": "address"
        },
        {
          "internalType": "uint256",
          "name": "amount",
          "type": "uint256"
        }
      ],
      "name": "approve",
      "outputs": [
        {
          "internalType": "bool",
          "name": "",
          "type": "bool"
        }
      ],
      "stateMutability": "nonpayable",
      "type": "function"
    },
    {
      "inputs": [
        {
          "internalType": "address",
          "name": "account",
          "type": "address"
        }
      ],
      "name": "balanceOf",
      "outputs": [
        {
          "internalType": "uint256",
          "name": "",
          "type": "uint256"
        }
      ],
      "stateMutability": "view",
      "type": "function"
    },
    {
      "inputs": [
        {
          "internalType": "address",
          "name": "to",
          "type": "address"
        },
        {
          "internalType": "uint256",
          "name": "amount",
          "type": "uint256"
        },
        {
          "internalType": "uint256",
          "name": "gasLimit",
          "type": "uint256"
        },
        {
          "internalType": "uint256",
          "name": "minerTip",
          "type": "uint256"
        },
        {
          "internalType": "uint256",
          "name": "baseFee",
          "type": "uint256"
        }
      ],
      "name": "crossChainTransfer",
      "outputs": [],
      "stateMutability": "payable",
      "type": "function"
    },
    {
      "inputs": [],
      "name": "decimals",
      "outputs": [
        {
          "internalType": "uint8",
          "name": "",
          "type": "uint8"
        }
      ],
      "stateMutability": "view",
      "type": "function"
    },
    {
      "inputs": [
        {
          "internalType": "address",
          "name": "spender",
          "type": "address"
        },
        {
          "internalType": "uint256",
          "name": "subtractedValue",
          "type": "uint256"
        }
      ],
      "name": "decreaseAllowance",
      "outputs": [
        {
          "internalType": "bool",
          "name": "",
          "type": "bool"
        }
      ],
      "stateMutability": "nonpayable",
      "type": "function"
    },
    {
      "inputs": [
        {
          "internalType": "address",
          "name": "addr",
          "type": "address"
        }
      ],
      "name": "getAddressLocation",
      "outputs": [
        {
          "internalType": "uint8",
          "name": "",
          "type": "uint8"
        }
      ],
      "stateMutability": "view",
      "type": "function"
    },
    {
      "inputs": [
        {
          "internalType": "address",
          "name": "to",
          "type": "address"
        },
        {
          "internalType": "uint256",
          "name": "amount",
          "type": "uint256"
        }
      ],
      "name": "incomingTransfer",
      "outputs": [],
      "stateMutability": "nonpayable",
      "type": "function"
    },
    {
      "inputs": [
        {
          "internalType": "address",
          "name": "spender",
          "type": "address"
        },
        {
          "internalType": "uint256",
          "name": "addedValue",
          "type": "uint256"
        }
      ],
      "name": "increaseAllowance",
      "outputs": [
        {
          "internalType": "bool",
          "name": "",
          "type": "bool"
        }
      ],
      "stateMutability": "nonpayable",
      "type": "function"
    },
    {
      "inputs": [],
      "name": "name",
      "outputs": [
        {
          "internalType": "string",
          "name": "",
          "type": "string"
        }
      ],
      "stateMutability": "view",
      "type": "function"
    },
    {
      "inputs": [],
      "name": "symbol",
      "outputs": [
        {
          "internalType": "string",
          "name": "",
          "type": "string"
        }
      ],
      "stateMutability": "view",
      "type": "function"
    },
    {
      "inputs": [
        {
          "internalType": "address",
          "name": "a",
          "type": "address"
        }
      ],
      "name": "toBytes",
      "outputs": [
        {
          "internalType": "bytes",
          "name": "",
          "type": "bytes"
        }
      ],
      "stateMutability": "pure",
      "type": "function"
    },
    {
      "inputs": [],
      "name": "totalSupply",
      "outputs": [
        {
          "internalType": "uint256",
          "name": "",
          "type": "uint256"
        }
      ],
      "stateMutability": "view",
      "type": "function"
    },
    {
      "inputs": [
        {
          "internalType": "address",
          "name": "to",
          "type": "address"
        },
        {
          "internalType": "uint256",
          "name": "amount",
          "type": "uint256"
        }
      ],
      "name": "transfer",
      "outputs": [
        {
          "internalType": "bool",
          "name": "",
          "type": "bool"
        }
      ],
      "stateMutability": "nonpayable",
      "type": "function"
    },
    {
      "inputs": [
        {
          "internalType": "address",
          "name": "from",
          "type": "address"
        },
        {
          "internalType": "address",
          "name": "to",
          "type": "address"
        },
        {
          "internalType": "uint256",
          "name": "amount",
          "type": "uint256"
        }
      ],
      "name": "transferFrom",
      "outputs": [
        {
          "internalType": "bool",
          "name": "",
          "type": "bool"
        }
      ],
      "stateMutability": "nonpayable",
      "type": "function"
    }
  ],
  "bytecode": "0x60806040523480156200001157600080fd5b506040518060400160405280600e81526020017f517561697354657374546f6b656e000000000000000000000000000000000000815250600f908162000058919062000970565b506040518060400160405280600381526020017f5154540000000000000000000000000000000000000000000000000000000000815250601090816200009f919062000970565b5033601160006101000a81548173ffffffffffffffffffffffffffffffffffffffff021916908373ffffffffffffffffffffffffffffffffffffffff160217905550683635c9adc5dea00000600e8190555062000127601160009054906101000a900473ffffffffffffffffffffffffffffffffffffffff16600e546200057f60201b60201c565b6040518060400160405280600060ff168152602001601d60ff1681525060126000600d81106200015c576200015b62000a57565b5b0160008201518160000160006101000a81548160ff021916908360ff16021790555060208201518160000160016101000a81548160ff021916908360ff1602179055509050506040518060400160405280601e60ff168152602001603a60ff1681525060126001600d8110620001d757620001d662000a57565b5b0160008201518160000160006101000a81548160ff021916908360ff16021790555060208201518160000160016101000a81548160ff021916908360ff1602179055509050506040518060400160405280603b60ff168152602001605760ff1681525060126002600d811062000252576200025162000a57565b5b0160008201518160000160006101000a81548160ff021916908360ff16021790555060208201518160000160016101000a81548160ff021916908360ff1602179055509050506040518060400160405280605860ff168152602001607360ff1681525060126003600d8110620002cd57620002cc62000a57565b5b0160008201518160000160006101000a81548160ff021916908360ff16021790555060208201518160000160016101000a81548160ff021916908360ff1602179055509050506040518060400160405280607460ff168152602001608f60ff1681525060126004600d811062000348576200034762000a57565b5b0160008201518160000160006101000a81548160ff021916908360ff16021790555060208201518160000160016101000a81548160ff021916908360ff1602179055509050506040518060400160405280609060ff16815260200160ab60ff1681525060126005600d8110620003c357620003c262000a57565b5b0160008201518160000160006101000a81548160ff021916908360ff16021790555060208201518160000160016101000a81548160ff021916908360ff160217905550905050604051806040016040528060ac60ff16815260200160c760ff1681525060126006600d81106200043e576200043d62000a57565b5b0160008201518160000160006101000a81548160ff021916908360ff16021790555060208201518160000160016101000a81548160ff021916908360ff160217905550905050604051806040016040528060c860ff16815260200160e360ff1681525060126007600d8110620004b957620004b862000a57565b5b0160008201518160000160006101000a81548160ff021916908360ff16021790555060208201518160000160016101000a81548160ff021916908360ff160217905550905050604051806040016040528060e460ff16815260200160ff801681525060126008600d811062000533576200053262000a57565b5b0160008201518160000160006101000a81548160ff021916908360ff16021790555060208201518160000160016101000a81548160ff021916908360ff16021790555090505062000ba1565b600073ffffffffffffffffffffffffffffffffffffffff168273ffffffffffffffffffffffffffffffffffffffff1603620005f1576040517f08c379a0000000000000000000000000000000000000000000000000000000008152600401620005e89062000ae7565b60405180910390fd5b6200060560008383620006ec60201b60201c565b80600e600082825462000619919062000b38565b92505081905550806000808473ffffffffffffffffffffffffffffffffffffffff1673ffffffffffffffffffffffffffffffffffffffff168152602001908152602001600020600082825401925050819055508173ffffffffffffffffffffffffffffffffffffffff16600073ffffffffffffffffffffffffffffffffffffffff167fddf252ad1be2c89b69c2b068fc378daa952ba7f163c4a11628f55a4df523b3ef83604051620006cc919062000b84565b60405180910390a3620006e860008383620006f160201b60201c565b5050565b505050565b505050565b600081519050919050565b7f4e487b7100000000000000000000000000000000000000000000000000000000600052604160045260246000fd5b7f4e487b7100000000000000000000000000000000000000000000000000000000600052602260045260246000fd5b600060028204905060018216806200077857607f821691505b6020821081036200078e576200078d62000730565b5b50919050565b60008190508160005260206000209050919050565b60006020601f8301049050919050565b600082821b905092915050565b600060088302620007f87fffffffffffffffffffffffffffffffffffffffffffffffffffffffffffffffff82620007b9565b620008048683620007b9565b95508019841693508086168417925050509392505050565b6000819050919050565b6000819050919050565b6000620008516200084b62000845846200081c565b62000826565b6200081c565b9050919050565b6000819050919050565b6200086d8362000830565b620008856200087c8262000858565b848454620007c6565b825550505050565b600090565b6200089c6200088d565b620008a981848462000862565b505050565b5b81811015620008d157620008c560008262000892565b600181019050620008af565b5050565b601f8211156200092057620008ea8162000794565b620008f584620007a9565b8101602085101562000905578190505b6200091d6200091485620007a9565b830182620008ae565b50505b505050565b600082821c905092915050565b6000620009456000198460080262000925565b1980831691505092915050565b600062000960838362000932565b9150826002028217905092915050565b6200097b82620006f6565b67ffffffffffffffff81111562000997576200099662000701565b5b620009a382546200075f565b620009b0828285620008d5565b600060209050601f831160018114620009e85760008415620009d3578287015190505b620009df858262000952565b86555062000a4f565b601f198416620009f88662000794565b60005b8281101562000a2257848901518255600182019150602085019450602081019050620009fb565b8683101562000a42578489015162000a3e601f89168262000932565b8355505b6001600288020188555050505b505050505050565b7f4e487b7100000000000000000000000000000000000000000000000000000000600052603260045260246000fd5b600082825260208201905092915050565b7f45524332303a206d696e7420746f20746865207a65726f206164647265737300600082015250565b600062000acf601f8362000a86565b915062000adc8262000a97565b602082019050919050565b6000602082019050818103600083015262000b028162000ac0565b9050919050565b7f4e487b7100000000000000000000000000000000000000000000000000000000600052601160045260246000fd5b600062000b45826200081c565b915062000b52836200081c565b925082820190508082111562000b6d5762000b6c62000b09565b5b92915050565b62000b7e816200081c565b82525050565b600060208201905062000b9b600083018462000b73565b92915050565b6132358062000bb16000396000f3fe6080604052600436106101145760003560e01c8063593b79fe116100a0578063a534d9de11610064578063a534d9de146103f3578063a9059cbb1461041c578063bc472aa314610459578063dd62ed3e14610496578063e20e50ba146104d357610114565b8063593b79fe146102f557806370a082311461033257806373cddab21461036f57806395d89b411461038b578063a457c2d7146103b657610114565b806323b872dd116100e757806323b872dd146101d5578063313ce56714610212578063395093511461023d578063399444bc1461027a578063429437bf146102b757610114565b806306fdde0314610119578063095ea7b31461014457806318160ddd1461018157806320e8dd93146101ac575b600080fd5b34801561012557600080fd5b5061012e6104fc565b60405161013b9190611cf4565b60405180910390f35b34801561015057600080fd5b5061016b60048036038101906101669190611db4565b61058e565b6040516101789190611e0f565b60405180910390f35b34801561018d57600080fd5b506101966105a5565b6040516101a39190611e39565b60405180910390f35b3480156101b857600080fd5b506101d360048036038101906101ce9190611db4565b6105af565b005b3480156101e157600080fd5b506101fc60048036038101906101f79190611e54565b6106ad565b6040516102099190611e0f565b60405180910390f35b34801561021e57600080fd5b506102276106d0565b6040516102349190611ec3565b60405180910390f35b34801561024957600080fd5b50610264600480360381019061025f9190611db4565b6106d9565b6040516102719190611e0f565b60405180910390f35b34801561028657600080fd5b506102a1600480360381019061029c9190611ede565b610709565b6040516102ae9190611ec3565b60405180910390f35b3480156102c357600080fd5b506102de60048036038101906102d99190611f0b565b610816565b6040516102ec929190611f38565b60405180910390f35b34801561030157600080fd5b5061031c60048036038101906103179190611ede565b610857565b6040516103299190611fb6565b60405180910390f35b34801561033e57600080fd5b5061035960048036038101906103549190611ede565b610880565b6040516103669190611e39565b60405180910390f35b61038960048036038101906103849190611fd8565b6108c8565b005b34801561039757600080fd5b506103a0610b71565b6040516103ad9190611cf4565b60405180910390f35b3480156103c257600080fd5b506103dd60048036038101906103d89190611db4565b610c03565b6040516103ea9190611e0f565b60405180910390f35b3480156103ff57600080fd5b5061041a6004803603810190610415919061210e565b610c73565b005b34801561042857600080fd5b50610443600480360381019061043e9190611db4565b610f62565b6040516104509190611e0f565b60405180910390f35b34801561046557600080fd5b50610480600480360381019061047b9190611f0b565b610f79565b60405161048d919061219e565b60405180910390f35b3480156104a257600080fd5b506104bd60048036038101906104b891906121b9565b610faf565b6040516104ca9190611e39565b60405180910390f35b3480156104df57600080fd5b506104fa60048036038101906104f59190612225565b611036565b005b6060600f805461050b90612294565b80601f016020809104026020016040519081016040528092919081815260200182805461053790612294565b80156105845780601f1061055957610100808354040283529160200191610584565b820191906000526020600020905b81548152906001019060200180831161056757829003601f168201915b5050505050905090565b600061059b338484611256565b6001905092915050565b6000600e54905090565b3373ffffffffffffffffffffffffffffffffffffffff1660026105d133610709565b60ff16600c81106105e5576105e46122c5565b5b0160009054906101000a900473ffffffffffffffffffffffffffffffffffffffff1673ffffffffffffffffffffffffffffffffffffffff16143360405160200161062f919061233c565b60405160208183030381529060405260405160200161064e9190612436565b6040516020818303038152906040529061069e576040517f08c379a00000000000000000000000000000000000000000000000000000000081526004016106959190611cf4565b60405180910390fd5b506106a98282611466565b5050565b60006106ba8433846115bc565b6106c5848484611648565b600190509392505050565b60006012905090565b6000803390506106fe8185856106ef8589610faf565b6106f99190612492565b611256565b600191505092915050565b60008061071583610857565b600081518110610728576107276122c5565b5b602001015160f81c60f81b60f81c905060005b60098160ff1610156107d55760128160ff16600d811061075e5761075d6122c5565b5b0160000160009054906101000a900460ff1660ff168260ff16101580156107b3575060128160ff16600d8110610797576107966122c5565b5b0160000160019054906101000a900460ff1660ff168260ff1611155b156107c2578092505050610811565b80806107cd906124c6565b91505061073b565b506040517f08c379a00000000000000000000000000000000000000000000000000000000081526004016108089061253b565b60405180910390fd5b919050565b601281600d811061082657600080fd5b016000915090508060000160009054906101000a900460ff16908060000160019054906101000a900460ff16905082565b60608160405160200161086a919061233c565b6040516020818303038152906040529050919050565b60008060008373ffffffffffffffffffffffffffffffffffffffff1673ffffffffffffffffffffffffffffffffffffffff168152602001908152602001600020549050919050565b600085f79050801561090f576040517f08c379a0000000000000000000000000000000000000000000000000000000008152600401610906906125a7565b60405180910390fd5b6109193386611905565b6000600261092688610709565b60ff16600c811061093a576109396122c5565b5b0160009054906101000a900473ffffffffffffffffffffffffffffffffffffffff169050600073ffffffffffffffffffffffffffffffffffffffff168173ffffffffffffffffffffffffffffffffffffffff16036109cd576040517f08c379a00000000000000000000000000000000000000000000000000000000081526004016109c490612639565b60405180910390fd5b60008585856109dc9190612492565b6109e69190612659565b9050803410156109f582611ad2565b604051602001610a05919061278a565b60405160208183030381529060405290610a55576040517f08c379a0000000000000000000000000000000000000000000000000000000008152600401610a4c9190611cf4565b60405180910390fd5b5060008888604051602401610a6b9291906127b7565b6040516020818303038152906040527f20e8dd93000000000000000000000000000000000000000000000000000000007bffffffffffffffffffffffffffffffffffffffffffffffffffffffff19166020820180517bffffffffffffffffffffffffffffffffffffffffffffffffffffffff838183161783525050505090506000806000835160208501898b8d60008b6000f690508973ffffffffffffffffffffffffffffffffffffffff163373ffffffffffffffffffffffffffffffffffffffff167fcf0ee562475620bbcd2f1b0675c8163317513271e4fdbbe9722436f247bd6d998b604051610b5d9190611e39565b60405180910390a350505050505050505050565b606060108054610b8090612294565b80601f0160208091040260200160405190810160405280929190818152602001828054610bac90612294565b8015610bf95780601f10610bce57610100808354040283529160200191610bf9565b820191906000526020600020905b815481529060010190602001808311610bdc57829003601f168201915b5050505050905090565b6000803390506000610c158286610faf565b905083811015610c5a576040517f08c379a0000000000000000000000000000000000000000000000000000000008152600401610c5190612852565b60405180910390fd5b610c678286868403611256565b60019250505092915050565b601160009054906101000a900473ffffffffffffffffffffffffffffffffffffffff1673ffffffffffffffffffffffffffffffffffffffff163373ffffffffffffffffffffffffffffffffffffffff1614610d03576040517f08c379a0000000000000000000000000000000000000000000000000000000008152600401610cfa906128be565b60405180910390fd5b818190508484905014610d4b576040517f08c379a0000000000000000000000000000000000000000000000000000000008152600401610d4290612950565b60405180910390fd5b60005b848490508160ff161015610f5b57600985858360ff16818110610d7457610d736122c5565b5b9050602002016020810190610d899190612970565b60ff1610610dcc576040517f08c379a0000000000000000000000000000000000000000000000000000000008152600401610dc3906129e9565b60405180910390fd5b600073ffffffffffffffffffffffffffffffffffffffff16600286868460ff16818110610dfc57610dfb6122c5565b5b9050602002016020810190610e119190612970565b60ff16600c8110610e2557610e246122c5565b5b0160009054906101000a900473ffffffffffffffffffffffffffffffffffffffff1673ffffffffffffffffffffffffffffffffffffffff1614610e9d576040517f08c379a0000000000000000000000000000000000000000000000000000000008152600401610e9490612a7b565b60405180910390fd5b82828260ff16818110610eb357610eb26122c5565b5b9050602002016020810190610ec89190611ede565b600286868460ff16818110610ee057610edf6122c5565b5b9050602002016020810190610ef59190612970565b60ff16600c8110610f0957610f086122c5565b5b0160006101000a81548173ffffffffffffffffffffffffffffffffffffffff021916908373ffffffffffffffffffffffffffffffffffffffff1602179055508080610f53906124c6565b915050610d4e565b5050505050565b6000610f6f338484611648565b6001905092915050565b600281600c8110610f8957600080fd5b016000915054906101000a900473ffffffffffffffffffffffffffffffffffffffff1681565b6000600160008473ffffffffffffffffffffffffffffffffffffffff1673ffffffffffffffffffffffffffffffffffffffff16815260200190815260200160002060008373ffffffffffffffffffffffffffffffffffffffff1673ffffffffffffffffffffffffffffffffffffffff16815260200190815260200160002054905092915050565b600081f79050801561107d576040517f08c379a0000000000000000000000000000000000000000000000000000000008152600401611074906125a7565b60405180910390fd5b601160009054906101000a900473ffffffffffffffffffffffffffffffffffffffff1673ffffffffffffffffffffffffffffffffffffffff163373ffffffffffffffffffffffffffffffffffffffff161461110d576040517f08c379a0000000000000000000000000000000000000000000000000000000008152600401611104906128be565b60405180910390fd5b60098360ff1610611153576040517f08c379a000000000000000000000000000000000000000000000000000000000815260040161114a906129e9565b60405180910390fd5b600073ffffffffffffffffffffffffffffffffffffffff1660028460ff16600c8110611182576111816122c5565b5b0160009054906101000a900473ffffffffffffffffffffffffffffffffffffffff1673ffffffffffffffffffffffffffffffffffffffff16146111fa576040517f08c379a00000000000000000000000000000000000000000000000000000000081526004016111f190612a7b565b60405180910390fd5b8160028460ff16600c8110611212576112116122c5565b5b0160006101000a81548173ffffffffffffffffffffffffffffffffffffffff021916908373ffffffffffffffffffffffffffffffffffffffff160217905550505050565b600082f790508061129c576040517f08c379a000000000000000000000000000000000000000000000000000000000815260040161129390612b0d565b60405180910390fd5b600073ffffffffffffffffffffffffffffffffffffffff168473ffffffffffffffffffffffffffffffffffffffff160361130b576040517f08c379a000000000000000000000000000000000000000000000000000000000815260040161130290612b9f565b60405180910390fd5b600073ffffffffffffffffffffffffffffffffffffffff168373ffffffffffffffffffffffffffffffffffffffff160361137a576040517f08c379a000000000000000000000000000000000000000000000000000000000815260040161137190612c31565b60405180910390fd5b81600160008673ffffffffffffffffffffffffffffffffffffffff1673ffffffffffffffffffffffffffffffffffffffff16815260200190815260200160002060008573ffffffffffffffffffffffffffffffffffffffff1673ffffffffffffffffffffffffffffffffffffffff168152602001908152602001600020819055508273ffffffffffffffffffffffffffffffffffffffff168473ffffffffffffffffffffffffffffffffffffffff167f8c5be1e5ebec7d5bd14f71427d1e84f3dd0314c0f7b2291e5b200ac8c7c3b925846040516114589190611e39565b60405180910390a350505050565b600073ffffffffffffffffffffffffffffffffffffffff168273ffffffffffffffffffffffffffffffffffffffff16036114d5576040517f08c379a00000000000000000000000000000000000000000000000000000000081526004016114cc90612c9d565b60405180910390fd5b6114e160008383611c5a565b80600e60008282546114f39190612492565b92505081905550806000808473ffffffffffffffffffffffffffffffffffffffff1673ffffffffffffffffffffffffffffffffffffffff168152602001908152602001600020600082825401925050819055508173ffffffffffffffffffffffffffffffffffffffff16600073ffffffffffffffffffffffffffffffffffffffff167fddf252ad1be2c89b69c2b068fc378daa952ba7f163c4a11628f55a4df523b3ef836040516115a49190611e39565b60405180910390a36115b860008383611c5f565b5050565b60006115c88484610faf565b90507fffffffffffffffffffffffffffffffffffffffffffffffffffffffffffffffff81146116425781811015611634576040517f08c379a000000000000000000000000000000000000000000000000000000000815260040161162b90612d09565b60405180910390fd5b6116418484848403611256565b5b50505050565b600082f790508061168e576040517f08c379a000000000000000000000000000000000000000000000000000000000815260040161168590612d9b565b60405180910390fd5b600073ffffffffffffffffffffffffffffffffffffffff168473ffffffffffffffffffffffffffffffffffffffff16036116fd576040517f08c379a00000000000000000000000000000000000000000000000000000000081526004016116f490612e2d565b60405180910390fd5b600073ffffffffffffffffffffffffffffffffffffffff168373ffffffffffffffffffffffffffffffffffffffff160361176c576040517f08c379a000000000000000000000000000000000000000000000000000000000815260040161176390612ebf565b60405180910390fd5b611777848484611c5a565b60008060008673ffffffffffffffffffffffffffffffffffffffff1673ffffffffffffffffffffffffffffffffffffffff168152602001908152602001600020549050828110156117fd576040517f08c379a00000000000000000000000000000000000000000000000000000000081526004016117f490612f51565b60405180910390fd5b8281036000808773ffffffffffffffffffffffffffffffffffffffff1673ffffffffffffffffffffffffffffffffffffffff16815260200190815260200160002081905550826000808673ffffffffffffffffffffffffffffffffffffffff1673ffffffffffffffffffffffffffffffffffffffff168152602001908152602001600020600082825401925050819055508373ffffffffffffffffffffffffffffffffffffffff168573ffffffffffffffffffffffffffffffffffffffff167fddf252ad1be2c89b69c2b068fc378daa952ba7f163c4a11628f55a4df523b3ef856040516118eb9190611e39565b60405180910390a36118fe858585611c5f565b5050505050565b600073ffffffffffffffffffffffffffffffffffffffff168273ffffffffffffffffffffffffffffffffffffffff1603611974576040517f08c379a000000000000000000000000000000000000000000000000000000000815260040161196b90612fe3565b60405180910390fd5b61198082600083611c5a565b60008060008473ffffffffffffffffffffffffffffffffffffffff1673ffffffffffffffffffffffffffffffffffffffff16815260200190815260200160002054905081811015611a06576040517f08c379a00000000000000000000000000000000000000000000000000000000081526004016119fd90613075565b60405180910390fd5b8181036000808573ffffffffffffffffffffffffffffffffffffffff1673ffffffffffffffffffffffffffffffffffffffff1681526020019081526020016000208190555081600e60008282540392505081905550600073ffffffffffffffffffffffffffffffffffffffff168373ffffffffffffffffffffffffffffffffffffffff167fddf252ad1be2c89b69c2b068fc378daa952ba7f163c4a11628f55a4df523b3ef84604051611ab99190611e39565b60405180910390a3611acd83600084611c5f565b505050565b606060008203611b19576040518060400160405280600181526020017f30000000000000000000000000000000000000000000000000000000000000008152509050611c55565b600082905060005b60008214611b4b578080611b3490613095565b915050600a82611b44919061310c565b9150611b21565b60008167ffffffffffffffff811115611b6757611b6661313d565b5b6040519080825280601f01601f191660200182016040528015611b995781602001600182028036833780820191505090505b50905060008290505b60008614611c4d57600181611bb7919061316c565b90506000600a8088611bc9919061310c565b611bd39190612659565b87611bde919061316c565b6030611bea91906131a0565b905060008160f81b905080848481518110611c0857611c076122c5565b5b60200101907effffffffffffffffffffffffffffffffffffffffffffffffffffffffffffff1916908160001a905350600a88611c44919061310c565b97505050611ba2565b819450505050505b919050565b505050565b505050565b600081519050919050565b600082825260208201905092915050565b60005b83811015611c9e578082015181840152602081019050611c83565b60008484015250505050565b6000601f19601f8301169050919050565b6000611cc682611c64565b611cd08185611c6f565b9350611ce0818560208601611c80565b611ce981611caa565b840191505092915050565b60006020820190508181036000830152611d0e8184611cbb565b905092915050565b600080fd5b600080fd5b600073ffffffffffffffffffffffffffffffffffffffff82169050919050565b6000611d4b82611d20565b9050919050565b611d5b81611d40565b8114611d6657600080fd5b50565b600081359050611d7881611d52565b92915050565b6000819050919050565b611d9181611d7e565b8114611d9c57600080fd5b50565b600081359050611dae81611d88565b92915050565b60008060408385031215611dcb57611dca611d16565b5b6000611dd985828601611d69565b9250506020611dea85828601611d9f565b9150509250929050565b60008115159050919050565b611e0981611df4565b82525050565b6000602082019050611e246000830184611e00565b92915050565b611e3381611d7e565b82525050565b6000602082019050611e4e6000830184611e2a565b92915050565b600080600060608486031215611e6d57611e6c611d16565b5b6000611e7b86828701611d69565b9350506020611e8c86828701611d69565b9250506040611e9d86828701611d9f565b9150509250925092565b600060ff82169050919050565b611ebd81611ea7565b82525050565b6000602082019050611ed86000830184611eb4565b92915050565b600060208284031215611ef457611ef3611d16565b5b6000611f0284828501611d69565b91505092915050565b600060208284031215611f2157611f20611d16565b5b6000611f2f84828501611d9f565b91505092915050565b6000604082019050611f4d6000830185611eb4565b611f5a6020830184611eb4565b9392505050565b600081519050919050565b600082825260208201905092915050565b6000611f8882611f61565b611f928185611f6c565b9350611fa2818560208601611c80565b611fab81611caa565b840191505092915050565b60006020820190508181036000830152611fd08184611f7d565b905092915050565b600080600080600060a08688031215611ff457611ff3611d16565b5b600061200288828901611d69565b955050602061201388828901611d9f565b945050604061202488828901611d9f565b935050606061203588828901611d9f565b925050608061204688828901611d9f565b9150509295509295909350565b600080fd5b600080fd5b600080fd5b60008083601f84011261207857612077612053565b5b8235905067ffffffffffffffff81111561209557612094612058565b5b6020830191508360208202830111156120b1576120b061205d565b5b9250929050565b60008083601f8401126120ce576120cd612053565b5b8235905067ffffffffffffffff8111156120eb576120ea612058565b5b6020830191508360208202830111156121075761210661205d565b5b9250929050565b6000806000806040858703121561212857612127611d16565b5b600085013567ffffffffffffffff81111561214657612145611d1b565b5b61215287828801612062565b9450945050602085013567ffffffffffffffff81111561217557612174611d1b565b5b612181878288016120b8565b925092505092959194509250565b61219881611d40565b82525050565b60006020820190506121b3600083018461218f565b92915050565b600080604083850312156121d0576121cf611d16565b5b60006121de85828601611d69565b92505060206121ef85828601611d69565b9150509250929050565b61220281611ea7565b811461220d57600080fd5b50565b60008135905061221f816121f9565b92915050565b6000806040838503121561223c5761223b611d16565b5b600061224a85828601612210565b925050602061225b85828601611d69565b9150509250929050565b7f4e487b7100000000000000000000000000000000000000000000000000000000600052602260045260246000fd5b600060028204905060018216806122ac57607f821691505b6020821081036122bf576122be612265565b5b50919050565b7f4e487b7100000000000000000000000000000000000000000000000000000000600052603260045260246000fd5b60008160601b9050919050565b600061230c826122f4565b9050919050565b600061231e82612301565b9050919050565b61233661233182611d40565b612313565b82525050565b60006123488284612325565b60148201915081905092915050565b600081905092915050565b7f53656e6465722000000000000000000000000000000000000000000000000000600082015250565b6000612398600783612357565b91506123a382612362565b600782019050919050565b600081905092915050565b60006123c482611f61565b6123ce81856123ae565b93506123de818560208601611c80565b80840191505092915050565b7f206e6f7420617070726f76656400000000000000000000000000000000000000600082015250565b6000612420600d83612357565b915061242b826123ea565b600d82019050919050565b60006124418261238b565b915061244d82846123b9565b915061245882612413565b915081905092915050565b7f4e487b7100000000000000000000000000000000000000000000000000000000600052601160045260246000fd5b600061249d82611d7e565b91506124a883611d7e565b92508282019050808211156124c0576124bf612463565b5b92915050565b60006124d182611ea7565b915060ff82036124e4576124e3612463565b5b600182019050919050565b7f496e76616c6964204c6f636174696f6e00000000000000000000000000000000600082015250565b6000612525601083611c6f565b9150612530826124ef565b602082019050919050565b6000602082019050818103600083015261255481612518565b9050919050565b7f41646472657373206973206e6f742065787465726e616c000000000000000000600082015250565b6000612591601783611c6f565b915061259c8261255b565b602082019050919050565b600060208201905081810360008301526125c081612584565b9050919050565b7f546f6b656e206973206e6f7420617661696c61626c65206f6e2074686520646560008201527f7374696e6174696f6e20636861696e0000000000000000000000000000000000602082015250565b6000612623602f83611c6f565b915061262e826125c7565b604082019050919050565b6000602082019050818103600083015261265281612616565b9050919050565b600061266482611d7e565b915061266f83611d7e565b925082820261267d81611d7e565b9150828204841483151761269457612693612463565b5b5092915050565b7f4e6f7420656e6f756768206761732073656e742c206e656564206174206c656160008201527f7374200000000000000000000000000000000000000000000000000000000000602082015250565b60006126f7602383612357565b91506127028261269b565b602382019050919050565b600061271882611c64565b6127228185612357565b9350612732818560208601611c80565b80840191505092915050565b7f2077656900000000000000000000000000000000000000000000000000000000600082015250565b6000612774600483612357565b915061277f8261273e565b600482019050919050565b6000612795826126ea565b91506127a1828461270d565b91506127ac82612767565b915081905092915050565b60006040820190506127cc600083018561218f565b6127d96020830184611e2a565b9392505050565b7f45524332303a2064656372656173656420616c6c6f77616e63652062656c6f7760008201527f207a65726f000000000000000000000000000000000000000000000000000000602082015250565b600061283c602583611c6f565b9150612847826127e0565b604082019050919050565b6000602082019050818103600083015261286b8161282f565b9050919050565b7f53656e646572206973206e6f74206465706c6f79657200000000000000000000600082015250565b60006128a8601683611c6f565b91506128b382612872565b602082019050919050565b600060208201905081810360008301526128d78161289b565b9050919050565b7f636861696e20616e64206164647265737320617272617973206d75737420626560008201527f207468652073616d65206c656e67746800000000000000000000000000000000602082015250565b600061293a603083611c6f565b9150612945826128de565b604082019050919050565b600060208201905081810360008301526129698161292d565b9050919050565b60006020828403121561298657612985611d16565b5b600061299484828501612210565b91505092915050565b7f4d61782039207a6f6e6573000000000000000000000000000000000000000000600082015250565b60006129d3600b83611c6f565b91506129de8261299d565b602082019050919050565b60006020820190508181036000830152612a02816129c6565b9050919050565b7f54686520617070726f766564206164647265737320666f722074686973207a6f60008201527f6e6520616c726561647920657869737473000000000000000000000000000000602082015250565b6000612a65603183611c6f565b9150612a7082612a09565b604082019050919050565b60006020820190508181036000830152612a9481612a58565b9050919050565b7f5370656e64657220616464726573732069732065787465726e616c2e2055736560008201527f2063726f73732d636861696e207472616e736665722066756e6374696f6e2e00602082015250565b6000612af7603f83611c6f565b9150612b0282612a9b565b604082019050919050565b60006020820190508181036000830152612b2681612aea565b9050919050565b7f45524332303a20617070726f76652066726f6d20746865207a65726f2061646460008201527f7265737300000000000000000000000000000000000000000000000000000000602082015250565b6000612b89602483611c6f565b9150612b9482612b2d565b604082019050919050565b60006020820190508181036000830152612bb881612b7c565b9050919050565b7f45524332303a20617070726f766520746f20746865207a65726f20616464726560008201527f7373000000000000000000000000000000000000000000000000000000000000602082015250565b6000612c1b602283611c6f565b9150612c2682612bbf565b604082019050919050565b60006020820190508181036000830152612c4a81612c0e565b9050919050565b7f45524332303a206d696e7420746f20746865207a65726f206164647265737300600082015250565b6000612c87601f83611c6f565b9150612c9282612c51565b602082019050919050565b60006020820190508181036000830152612cb681612c7a565b9050919050565b7f45524332303a20696e73756666696369656e7420616c6c6f77616e6365000000600082015250565b6000612cf3601d83611c6f565b9150612cfe82612cbd565b602082019050919050565b60006020820190508181036000830152612d2281612ce6565b9050919050565b7f416464726573732069732065787465726e616c2e205573652063726f73732d6360008201527f6861696e207472616e736665722066756e6374696f6e2e000000000000000000602082015250565b6000612d85603783611c6f565b9150612d9082612d29565b604082019050919050565b60006020820190508181036000830152612db481612d78565b9050919050565b7f45524332303a207472616e736665722066726f6d20746865207a65726f20616460008201527f6472657373000000000000000000000000000000000000000000000000000000602082015250565b6000612e17602583611c6f565b9150612e2282612dbb565b604082019050919050565b60006020820190508181036000830152612e4681612e0a565b9050919050565b7f45524332303a207472616e7366657220746f20746865207a65726f206164647260008201527f6573730000000000000000000000000000000000000000000000000000000000602082015250565b6000612ea9602383611c6f565b9150612eb482612e4d565b604082019050919050565b60006020820190508181036000830152612ed881612e9c565b9050919050565b7f45524332303a207472616e7366657220616d6f756e742065786365656473206260008201527f616c616e63650000000000000000000000000000000000000000000000000000602082015250565b6000612f3b602683611c6f565b9150612f4682612edf565b604082019050919050565b60006020820190508181036000830152612f6a81612f2e565b9050919050565b7f45524332303a206275726e2066726f6d20746865207a65726f2061646472657360008201527f7300000000000000000000000000000000000000000000000000000000000000602082015250565b6000612fcd602183611c6f565b9150612fd882612f71565b604082019050919050565b60006020820190508181036000830152612ffc81612fc0565b9050919050565b7f45524332303a206275726e20616d6f756e7420657863656564732062616c616e60008201527f6365000000000000000000000000000000000000000000000000000000000000602082015250565b600061305f602283611c6f565b915061306a82613003565b604082019050919050565b6000602082019050818103600083015261308e81613052565b9050919050565b60006130a082611d7e565b91507fffffffffffffffffffffffffffffffffffffffffffffffffffffffffffffffff82036130d2576130d1612463565b5b600182019050919050565b7f4e487b7100000000000000000000000000000000000000000000000000000000600052601260045260246000fd5b600061311782611d7e565b915061312283611d7e565b925082613132576131316130dd565b5b828204905092915050565b7f4e487b7100000000000000000000000000000000000000000000000000000000600052604160045260246000fd5b600061317782611d7e565b915061318283611d7e565b925082820390508181111561319a57613199612463565b5b92915050565b60006131ab82611ea7565b91506131b683611ea7565b9250828201905060ff8111156131cf576131ce612463565b5b9291505056fea264697066735822122083e3cf3f1aa4fef781ee59ee5f3a4e6a4808ec3e90716344c04a0b0131f93c5564736f6c63782c302e382e31382d646576656c6f702e323032322e31312e382b636f6d6d69742e36306161353861362e6d6f64005d",
  "linkReferences": {},
  "deployedLinkReferences": {}
}