{
  "_format": "hh-sol-artifact-1",
  "contractName": "eip838errors",
  "sourceName": "contracts/EIP-838ErrorCodes.sol",
  "abi": [
    {
      "inputs": [
        {
          "internalType": "address",
          "name": "addr",
          "type": "address"
        },
        {
          "internalType": "uint256",
          "name": "value",
          "type": "uint256"
        }
      ],
      "name": "TestError1",
      "type": "error"
    },
    {
      "inputs": [
        {
          "internalType": "bytes",
          "name": "data",
          "type": "bytes"
        }
      ],
      "name": "TestError2",
      "type": "error"
    },
    {
      "inputs": [
        {
          "internalType": "bool",
          "name": "pass",
          "type": "bool"
        },
        {
          "internalType": "address",
          "name": "addr",
          "type": "address"
        },
        {
          "internalType": "uint256",
          "name": "value",
          "type": "uint256"
        }
      ],
      "name": "testError1",
      "outputs": [
        {
          "internalType": "bool",
          "name": "",
          "type": "bool"
        }
      ],
      "stateMutability": "pure",
      "type": "function"
    },
    {
      "inputs": [
        {
          "internalType": "bool",
          "name": "pass",
          "type": "bool"
        },
        {
          "internalType": "bytes",
          "name": "data",
          "type": "bytes"
        }
      ],
      "name": "testError2",
      "outputs": [
        {
          "internalType": "bool",
          "name": "",
          "type": "bool"
        }
      ],
      "stateMutability": "pure",
      "type": "function"
    }
  ],
  "bytecode": "0x608060405234801561001057600080fd5b50610581806100206000396000f3fe608060405234801561001057600080fd5b50600436106100365760003560e01c8063a772cfe21461003b578063c0c977881461006b575b600080fd5b6100556004803603810190610050919061021a565b61009b565b604051610062919061027c565b60405180910390f35b610085600480360381019061008091906103dd565b6100ec565b604051610092919061027c565b60405180910390f35b6000836100e15782826040517f7f92a8ee0000000000000000000000000000000000000000000000000000000081526004016100d8929190610457565b60405180910390fd5b600190509392505050565b60008261013057816040517f28d2664000000000000000000000000000000000000000000000000000000000815260040161012791906104ff565b60405180910390fd5b6001905092915050565b6000604051905090565b600080fd5b600080fd5b60008115159050919050565b6101638161014e565b811461016e57600080fd5b50565b6000813590506101808161015a565b92915050565b600073ffffffffffffffffffffffffffffffffffffffff82169050919050565b60006101b182610186565b9050919050565b6101c1816101a6565b81146101cc57600080fd5b50565b6000813590506101de816101b8565b92915050565b6000819050919050565b6101f7816101e4565b811461020257600080fd5b50565b600081359050610214816101ee565b92915050565b60008060006060848603121561023357610232610144565b5b600061024186828701610171565b9350506020610252868287016101cf565b925050604061026386828701610205565b9150509250925092565b6102768161014e565b82525050565b6000602082019050610291600083018461026d565b92915050565b600080fd5b600080fd5b6000601f19601f8301169050919050565b7f4e487b7100000000000000000000000000000000000000000000000000000000600052604160045260246000fd5b6102ea826102a1565b810181811067ffffffffffffffff82111715610309576103086102b2565b5b80604052505050565b600061031c61013a565b905061032882826102e1565b919050565b600067ffffffffffffffff821115610348576103476102b2565b5b610351826102a1565b9050602081019050919050565b82818337600083830152505050565b600061038061037b8461032d565b610312565b90508281526020810184848401111561039c5761039b61029c565b5b6103a784828561035e565b509392505050565b600082601f8301126103c4576103c3610297565b5b81356103d484826020860161036d565b91505092915050565b600080604083850312156103f4576103f3610144565b5b600061040285828601610171565b925050602083013567ffffffffffffffff81111561042357610422610149565b5b61042f858286016103af565b9150509250929050565b610442816101a6565b82525050565b610451816101e4565b82525050565b600060408201905061046c6000830185610439565b6104796020830184610448565b9392505050565b600081519050919050565b600082825260208201905092915050565b60005b838110156104ba57808201518184015260208101905061049f565b60008484015250505050565b60006104d182610480565b6104db818561048b565b93506104eb81856020860161049c565b6104f4816102a1565b840191505092915050565b6000602082019050818103600083015261051981846104c6565b90509291505056fea2646970667358221220e0c6237602765c6f3985b057438db4e37374e610e35c76d07bd5a7719766764b64736f6c63782c302e382e31382d646576656c6f702e323032322e31312e382b636f6d6d69742e36306161353861362e6d6f64005d",
  "linkReferences": {},
  "deployedLinkReferences": {}
}